:020000022000DC
:1060000000000420B5620200DD620200DF620200CF
:10601000E1620200E3620200E562020000000000AB
:10602000000000000000000000000000E762020025
:10603000E962020000000000EB620200ED62020073
:10604000E1A9020021390300CDAA0200F1D6020025
:106050006DD50200EF62020061A40200EF6202004F
:10606000EF620200EF620200EF620200EF620200E4
:10607000EF62020071DA0200EF620200EF620200DA
:10608000694703001D77020089450300CD450300E1
:10609000BD770200EF62020099D30200B93C030011
:1060A000EF620200EF620200EF620200EF620200A4
:1060B000EF620200EF62020000000000000000003A
:1060C000EF620200EF620200EF620200EF62020084
:1060D000EF620200EF620200EF620200397102001B
:1060E000EF620200EF620200EF62020000000000B7
:1060F00000000000EF62020000000000EF620200FA
:10610000000000000000000000000000000000008F
:10611000000000000000000000000000000000007F
:10612000000000000000000000000000000000006F
:10613000000000000000000000000000000000005F
:10614000000000000000000000000000000000004F
:10615000000000000000000000000000000000003F
:10616000000000000000000000000000000000002F
:10617000000000000000000000000000000000001F
:10618000000000000000000000000000000000000F
:1061900000000000000000000000000000000000FF
:1061A00000000000000000000000000000000000EF
:1061B00000000000000000000000000000000000DF
:1061C00000000000000000000000000000000000CF
:1061D00000000000000000000000000000000000BF
:1061E00000000000000000000000000000000000AF
:1061F000000000000000000000000000000000009F
:1062000010B5054C237833B9044B13B10448AFF3F0
:1062100000800123237010BD482D002000000000E5
:10622000C8AE030008B5034B1BB103490348AFF3E5
:10623000008008BD000000004C2D0020C8AE030007
:10624000154B002B08BF134B9D46A3F5803A002148
:106250008B460F461348144A121A11F01EFC0F4BBE
:10626000002B00D098470E4B002B00D09847002001
:10627000002104000D000D48002802D00C48AFF3A7
:10628000008011F0B3FB200029000CF0D1FB11F0CD
:1062900099FB00BF0000080000000420000000007F
:1062A00000000000482D0020ACC8002000000000C5
:1062B000000000000649074A074B9B1A03DD043B18
:1062C000C858D050FBDC00F013F8FFF7B9FF00000E
:1062D00088AF0300982A0020482D0020FEE7FEE743
:1062E000FEE7FEE7FEE7FEE7FEE7FEE7FEE7FEE786
:1062F00010B44FF080414FF080520020C1F80C01E3
:106300005E4BC1F81001C1F83805D2F80414C3F887
:106310002015D2F80814C3F82415D2F80C14C3F8C9
:106320002815D2F81014C3F82C15D2F81414C3F899
:106330003015D2F81814C3F83415D2F81C14C3F869
:106340004015D2F82014C3F84415D2F82414C3F829
:106350004815D2F82814C3F84C15D2F82C14C3F8F9
:106360005015D2F83014C3F85415D2F83414C3F8C9
:106370006015D2F83814C3F86415D2F83C04C3F899
:106380006805D2F840043E49C3F86C050968D2F8A4
:106390004424C3F87025082924D04FF08043D3F853
:1063A0000024D20744BF6FF00102C3F80024354A2D
:1063B000D2F8883043F47003C2F88830BFF34F8FAF
:1063C000BFF36F8F4FF01023D3F80022002A23DB96
:1063D000D3F80432002B1FDB2B4B2C4A1A605DF8DC
:1063E000044B70472A4B1B68002BD6D129482A4AF8
:1063F0002A4C04602A492B4BFB20C2F818050A6876
:106400001B68294822F00F0203F00F0313434FF4D7
:1064100000720B600260C0E7244B0122C3F8042520
:10642000D3F80024002AFBD04FF0102312221F497A
:10643000C3F80022D1F80034002BFBD04FF010221B
:1064400012211A4BC2F80412D3F80024002AFBD000
:1064500000221649C3F80425D1F80034002BFBD0E4
:10646000BFF34F8F0749124BCA6802F4E06213432F
:10647000CB60BFF34F8F00BFFDE700BF00C00040FF
:106480003001001000ED00E0982A00200090D003B9
:10649000340100108C56004000F000404881030099
:1064A000E40E0040580200104096024000E0014017
:1064B0000400FA0510B582B002A800230121064AA3
:1064C0000193064C00F8041D0549126823700B70F7
:1064D000904702B010BD00BF902E0020642D002018
:1064E000942E0020704700BF00B583B00D4B0E49BD
:1064F00000228DF80420D3F82025ADF80620D3F82B
:10650000C0040A4A0968136800280CBF4FF4807061
:106510004FF00120034301A81360884703B05DF8E2
:1065200004FB00BF00700240902E00206C2D002064
:1065300010B40B4A0B4C92F89E100B480023032911
:106540002360037005D0D2F8903013B15DF8044B8E
:1065500070476FF0010105485DF8044B03F012BF6E
:10656000702D00201C7C0240652D0020682D00202D
:1065700030B51A4A1A4B11781A4C186822680D0661
:1065800083B001F00F0314D41033012505FA03F38F
:106590001A43034222600AD1134B8DF806100622DB
:1065A0001B688DF807508DF8042001A8984703B0A8
:1065B00030BD012505FA03F31A4318402260F6D1D5
:1065C000094B8DF8070006221B688DF806108DF820
:1065D000042001A8984703B030BD00BF942E0020CE
:1065E000682D00206C2D0020902E002010B5224B2D
:1065F000D3F80044C3F8004482B0BFF36F8FBFF3F9
:106600004F8FBFF36F8FBFF34F8FE1050BD5002383
:1066100002A802220193194B00F8042D184A1B68A6
:10662000012111709847A2050AD502A80023032270
:10663000019300F8042D114A114912680B7090471C
:10664000630516D50E4B1A789AB10B4C0D480121F3
:1066500000221A70C4F808150160BFF36F8FBFF3F2
:106660004F8F064B019202A8042100F8041D1B68FD
:10667000984702B010BD00BF00700240902E00206D
:10668000642D0020587002402DE9F04FDFF8A092F1
:10669000DFF890B2D9F80030DBF80040234087B033
:1066A00000F09F8013F0012400F09E8094FAA4F47F
:1066B000B4FA84F40F2C86BFA4F11007FFB244F0A3
:1066C00080074FFA87F807F00F05B8F1000F4FEA7F
:1066D000051AC0F2D8808A4B072D03EB0A0600F298
:1066E000E58005F59473874A52F823300193844B73
:1066F000716853F80AA0B289019B04A8D047012110
:10670000049B01FA04F4E14323B1059B019A9A42E8
:1067100000F2A18000286CD07B4B7C4C82221A6056
:10672000D9F80020B3680598114003440122B8F15C
:10673000000FB360C9F80010049B2270C0F2CA8039
:10674000072D58D8A9004A19920002F1804202F59B
:106750001C32C2F80037C2F804076D4B1B68082BC7
:1067600054D0B8F1000F6B4A6B4B6C4CDFF8C4810E
:10677000B4BF042628260E44B4BF9146994606F1BC
:10678000804609EB450906F51C36002501272560E2
:10679000BFF36F8FBFF34F8F3760BFF36F8FBFF3C0
:1067A0004F8F022004F0CAF92368002BEFD01E207F
:1067B00004F0C4F9D8F800309A0606D4022004F098
:1067C000BDF9D8F800309B06F8D5012004F0B6F9E1
:1067D000B9F8003003F1804303F51C331B68002B2C
:1067E000D4D007B0BDE8F08F93FAA3F4B4FA84F4E0
:1067F00060E7306090E7434AC2F8A037444BC2F8E4
:10680000A4071B68082B4FEA8501AAD1444B1B68DB
:10681000002BA6D0B8F1000FB4BF042328230B44EB
:1068200003F1804303F51C334FF001021A60BFF3FC
:106830006F8FBFF34F8F384A364BA8BF134633F8DC
:10684000152002F1804202F51C321368002BFCD0A7
:1068500007B0BDE8F08F02243248B47303F092FD14
:10686000314B8DF80F4006221B688DF80C208DF8F7
:106870000E7003A89847DBF80030D9F800201340C9
:106880007FF410AFADE7294F07EB0A0604A8716843
:10689000B28957F80A309847012101FA04F4E1431C
:1068A00000287FF439AF47F80A0035E7154BD3F8D5
:1068B000C0340193D9037FF51AAF71683768B28984
:1068C00004A80023B8470121A140C94300287FF450
:1068D00023AF8EE7072D06D90A4AA900C2F8A036D1
:1068E000C2F8A40639E7A9004A19920002F18042D1
:1068F00002F51C32C2F80036C2F804062DE700BFCC
:10690000702D0020007002401C7C0240652D00208C
:1069100030010010509E0300649E03000471024089
:1069200034010010682D0020902E0020002E002041
:106930006C2D00207474024030B5174A174892F845
:106940004E10174C00230329036083B0237005D039
:10695000156C6DB1FFF798FE03B030BD6FF4801178
:10696000104803F00FFD2378002BF3D003B030BDA7
:106970006FF480110B4803F005FD0B4B8DF80750A9
:10698000042206211B688DF804108DF806200DEBFB
:1069900002009847E7E700BF702D00201C7C0240F2
:1069A000652D0020682D0020902E002010B5114A82
:1069B000114C92F88E10114800230329236082B0F5
:1069C000037002D0D2F880400CB102B010BD6FF05D
:1069D00080710B4803F0D6FC0A4B8DF80740062166
:1069E00008221B688DF804108DF8062001A898472E
:1069F00002B010BD702D00201C7C0240652D0020CF
:106A0000682D0020902E002010B5154A154C92F8E4
:106A10001E11154800230329236082B0037017D08C
:106A2000D2F810410CB102B010BD6FF480710F4864
:106A300003F0A8FC0E4B8DF80740062188221B6846
:106A40008DF804108DF8062001A8984702B010BDFB
:106A50006FF48071054803F095FC02B010BD00BFD3
:106A6000702D00201C7C0240652D0020682D002028
:106A7000902E002010B40B4A0B4C92F8AE100B482D
:106A8000002303292360037005D0D2F8A03013B18E
:106A90005DF8044B70476FF0020105485DF8044B48
:106AA00003F070BC702D00201C7C0240652D00207E
:106AB000682D002010B40B4A0B4C92F8BE100B4806
:106AC000002303292360037005D0D2F8B03013B13E
:106AD0005DF8044B70476FF0040105485DF8044B06
:106AE00003F050BC702D00201C7C0240652D00205E
:106AF000682D002010B40B4A0B4C92F8CE100B48B6
:106B0000002303292360037005D0D2F8C03013B1ED
:106B10005DF8044B70476FF0080105485DF8044BC1
:106B200003F030BC702D00201C7C0240652D00203D
:106B3000682D002010B40B4A0B4C92F8DE100B4865
:106B4000002303292360037005D0D2F8D03013B19D
:106B50005DF8044B70476FF0100105485DF8044B79
:106B600003F010BC702D00201C7C0240652D00201D
:106B7000682D002010B40B4A0B4C92F8EE100B4815
:106B8000002303292360037005D0D2F8E03013B14D
:106B90005DF8044B70476FF0200105485DF8044B29
:106BA00003F0F0BB702D00201C7C0240652D0020FE
:106BB000682D002010B40B4A0B4C92F8FE100B48C5
:106BC000002303292360037005D0D2F8F03013B1FD
:106BD0005DF8044B70476FF0400105485DF8044BC9
:106BE00003F0D0BB702D00201C7C0240652D0020DE
:106BF000682D002010B40B4A0B4C92F80E110B4874
:106C0000002303292360037005D0D2F8003113B1AB
:106C10005DF8044B70476FF0800105485DF8044B48
:106C200003F0B0BB702D00201C7C0240652D0020BD
:106C3000682D00202DE9F043314BD3F86C44C3F8A4
:106C40006C4483B0BFF36F8FBFF34F8F2D4B1B6826
:106C5000082B4FD02C4A136803F0011123F00113C5
:106C600011601C4384B3294DDFF8AC80DFF8AC9091
:106C70000126062794FAA4F3B3FA83F35FFA83FCA0
:106C80000F2BACF11002C8BF5FFA82FC2A68D8F85B
:106C9000001006FA03F3D8BF4CF0800C1A431CF026
:106CA000800F24EA03042A6003EA010301A813D138
:106CB00043B98DF804708DF806C08DF80760D9F8D7
:106CC00000309847002CD5D1114B1B780BB9FFF73A
:106CD000DBFC03B0BDE8F083002BF3D18DF8073067
:106CE0008DF804708DF806C0D9F800309847002C54
:106CF000C0D1E9E7074B1B68002BB3D1AAE700BF5F
:106D00000070024030010010982E00206C2D0020F1
:106D1000652D002034010010682D0020902E0020E9
:106D200010B5244A244C917B244800230329236076
:106D300082B0037037D014681CB3214B1B68082B3A
:106D400012D0EFF3108172B61E4B01221A60BFF30E
:106D50006F8FBFF34F8F1A60BFF36F8FBFF34F8FEB
:106D600081F3108802B010BD174B1B68002BE8D0D0
:106D7000144B01221A60BFF36F8FBFF34F8F02B025
:106D800010BD6FF48031114803F0FCFA104B8DF800
:106D9000064006228DF807401B688DF8042001A8E4
:106DA000984702B010BD6FF48031084803F0EAFA4A
:106DB00002B010BD702D00201C7C0240652D00200B
:106DC000300100104C70024034010010682D00208A
:106DD000902E002030B5164A164892F85E10164CD8
:106DE00000230329036083B0237005D0156D6DB1B6
:106DF000FFF74AFC03B030BD6FF400110F4803F0F9
:106E0000C1FA2378002BF3D003B030BD6FF400112A
:106E10000A4803F0B7FA0A4B8DF8075006210522FD
:106E20001B688DF804108DF8062001A89847E8E744
:106E3000702D00201C7C0240652D0020682D002054
:106E4000902E002030B5164A164892F86E10164C57
:106E500000230329036083B0237005D0156E6DB144
:106E6000FFF712FC03B030BD6FF480010F4803F050
:106E700089FA2378002BF3D003B030BD6FF4800182
:106E80000A4803F07FFA0A4A8DF807500623126871
:106E90008DF804308DF8063001A89047E9E700BF6F
:106EA000702D00201C7C0240652D0020682D0020E4
:106EB000902E002030B5164A164892F87E10164CD7
:106EC00000230329036083B0237005D0156F6DB1D3
:106ED000FFF7DAFB03B030BD6FF400010F4803F099
:106EE00051FA2378002BF3D003B030BD6FF40001CA
:106EF0000A4803F047FA0A4B8DF80750062107228B
:106F00001B688DF804108DF8062001A89847E8E763
:106F1000702D00201C7C0240652D0020682D002073
:106F2000902E002030B5164A1648917F164C00234B
:106F30000329036083B0237005D015696DB1FFF795
:106F4000A3FB03B030BD6FF40031104803F01AFA10
:106F50002378002BF3D003B030BD6FF400310B4821
:106F600003F010FA0A4B8DF80750062101221B6826
:106F70008DF804108DF8062001A89847E8E700BFB7
:106F8000702D00201C7C0240652D0020682D002003
:106F9000902E002030B5164A164892F82E10164C46
:106FA00000230329036083B0237005D0156A6DB1F7
:106FB000FFF76AFB03B030BD6FF480210F4803F088
:106FC000E1F92378002BF3D003B030BD6FF48021BA
:106FD0000A4803F0D7F90A4B8DF807500621022220
:106FE0001B688DF804108DF8062001A89847E8E783
:106FF000702D00201C7C0240652D0020682D002093
:10700000902E002030B5164A164892F83E10164CC5
:1070100000230329036083B0237005D0156B6DB185
:10702000FFF732FB03B030BD6FF400210F4803F0CF
:10703000A9F92378002BF3D003B030BD6FF4002101
:107040000A4803F09FF90A4B8DF8075006210322E6
:107050001B688DF804108DF8062001A89847E8E712
:10706000702D00201C7C0240652D0020682D002022
:10707000902E002070B52A4B1B68082B82B0044666
:1070800046B223D002A8002500F8015D00F0D6FF2B
:10709000AE4224482449254EB4BF2A46102204F0AB
:1070A0000F042244012303FA02F2036823EA0203D5
:1070B000036040F2C57303EB440434600D609DF837
:1070C00007000B6800F0E0FF02B070BD184B1B68B2
:1070D000002BD7D002A8002500F8015D00F0AEFF1C
:1070E000AE421048B4BF2A46102204F00F04A11883
:1070F000036801228A4023EA0203072C036008D8B0
:1071000004F594740B4B43F82450BFF36F8FBFF317
:107110004F8F9DF8070000F0B7FF02B070BD00BFB1
:10712000300100106C2D00200478024000780240ED
:1071300034010010007002402DE9F04F974BD3F856
:1071400004C383B0BCF1000F00F0258100252F4659
:107150006146012691FAA1F3914AB3FA83F39800AC
:10716000024406FA03F014683CBB8143F2D18D4B14
:107170008D4E1B68082B30D03378002B37D005F4A8
:10718000000735F4000512D0DFF840924FF00108F7
:1071900095FAA5F4B4FA84F459F8243008FA04F402
:1071A0009847A543F4D13378002B00F09880002F46
:1071B00040F09A8003B0BDE8F08F1760BFF36F8F87
:1071C000BFF34F8F06FA03F3994345EA0305C1D194
:1071D000744B754E1B68082BCED1744B1B68002B6B
:1071E000CAD005F4000735F40005CDD1DBE7AF02C6
:1071F0006FD56F4A6F4BDFF8B8E16E4F40F2A9715F
:10720000116019686A4A11F0FF0118BF1B6840F24B
:10721000AA7018BF1940674B10601A68654812F0D1
:10722000FF021CBF1B681A40614B40F2AB741C602C
:10723000036813F0FF031CBF0068034040F2AC700A
:10724000CEF80000386801405B4808D0046840F27E
:10725000A9780C430460CEF8008039603968544F37
:10726000544940F2AD743C600C68224009D0046877
:1072700040F2AA7E44EA02440460C7F800E00A60D3
:107280000A684B494B4A40F2AE740C6012681340D6
:107290000ED0DC0748BF45F40005464AD9064449EC
:1072A00040F2AB740C601360136848BF45F00105F1
:1072B000036833F001121CBF0CF080710D4313F012
:1072C000011F8ED01CF4806F1CBF026045F48065E6
:1072D00087E705F4000735F400057FF455AFFFF7A5
:1072E000D3F9002F3FF466AF344CDFF8D8A0236801
:1072F000DFF8DC90DAF8002099F800702749DB43CA
:107300009BB213433A0607F00F08D1F8805461D4BA
:1073100008F1100201269640334219D1284E01AFE0
:1073200005F080056FF00111264889F8005003F040
:1073300029F8236832680521002543F001030195EF
:1073400038468DF804102360904703B0BDE8F08FF5
:1073500002A8002300F8053D00F070FEDAF80030C6
:1073600019494FEA081836EA030001EB080B7FD1F0
:10737000226841F80800F64333403240CAF8003032
:10738000226003230E4E8BF80E3001AF9DF80300F0
:1073900000F07AFEC4E76546E9E600BF00700240EF
:1073A0000071024030010010652D002034010010F2
:1073B0000078024004780240982E00206C2D0020B6
:1073C000902E0020682D0020702D0020789E030054
:1073D000942E00204FF0010B0BFA08FB13EA0B0F61
:1073E0009CD002A8002300F8053D00F027FE2C4A9F
:1073F0004FEA0811B8F1070F02EB010013D8802FF4
:107400003AD0DFF8A8C0274E08F2DA335B00CCF898
:1074100000303368D6F800C0DBB243F0020343EA21
:107420000C03336033682368DAF800C06CEA0306A3
:1074300016EA0B0F31D01C4E8DF806702CEA0B07A4
:107440004FF000084FF0030CCAF800704FF0060E22
:1074500001AF42F8018043EA0B0380F80EC03268A6
:107460008DF807C08DF804E03846236090478DE71B
:107470003846FFF7FFFD84E70C4B0A4E40F2B47C20
:10748000C3F800C03368D6F800C0DBB243F0040391
:1074900043EA0C0333603368C5E701AF024E75E77A
:1074A000002E002004780240902E00200078024038
:1074B0002DE9F04F5C4CDFF87CA12368DFF8889160
:1074C000DAF8002099F800705849DB439BB2134367
:1074D0003A0685B007F00F08D1F8805444D408F17B
:1074E00010020126964033421AD103AB504E01934D
:1074F00005F080056FF001114E4889F8005002F048
:1075000041FF2368326805210020039043F0010306
:1075100001988DF80C102360904705B0BDE8F08FFE
:1075200004A8002300F8053D00F088FDDAF80030DB
:1075300041494FEA081836EA030001EB080B5DD118
:10754000226841F80800F64333403240CAF8003060
:107550002260032303AA364E01928BF80E309DF869
:107560000B0000F091FDC3E74FF0010B0BFA08FB95
:1075700013EA0B0FB9D004A8002300F8053D00F072
:107580005DFD2E4A4FEA0811B8F1070F02EB010C1E
:1075900010D8802F36D02A4E2A4808F2DA384FEA1F
:1075A0004803336003680668DBB243F002033343E9
:1075B000036003682368DAF8000060EA030616EA4D
:1075C0000B0F2DD01A4E8DF80E7020EA0B0703A872
:1075D00001904FF0030E00204FF00608505043EA90
:1075E0000B03CAF80070019832688CF80EE08DF831
:1075F0000FE08DF80C8023609047B0E73846FFF726
:1076000039FDA6E70E4B0F4840F2B4761E600368C2
:107610000668DBB243F00403334303600368C9E741
:1076200003AB0193024E9AE76C2D002000700240DC
:10763000902E0020682D0020702D0020002E0020AC
:107640000078024004780240942E002000B585B0F6
:1076500000230390194601AA44F20100CDE9013349
:1076600000F004F805B05DF804FB00BF72B6094BEA
:107670001B68DB0700D500BEBFF34F8F0649074BE1
:10768000CA6802F4E0621343CB60BFF34F8F00BFC0
:10769000FDE700BFF0ED00E000ED00E00400FA05BA
:1076A00059B142B1531E1A4005D1826001608380F6
:1076B000C26010467047092070470E20704700BF17
:1076C00010B403468468C0689A88001B82420AD3BB
:1076D000D8681C6802400020A154DA680132DA60E0
:1076E0005DF8044B704704205DF8044B704700BF01
:1076F00003468068DA6890420DD010B498689A8882
:107700001C6802400020A25C0A709A6801329A60EC
:107710005DF8044B70470520704700BFF8B5204A5C
:10772000204B0024C2F84041C2F84441C2F848410D
:10773000C2F84C41C2F80041C2F804411B6833B39F
:107740001949D2F804550A68AD1A1A6825F07F4520
:10775000AA4227460DD8197CDE69AD1A144419B126
:107760001F74D3E9052090471EB133461A68AA4218
:10777000F1D90E490E4A0B7812789A4208D00D4979
:107780000D4A41F823404FF48013C2F80031F8BD90
:10779000531CDBB2022B08BF00230B70EFE700BFC6
:1077A00000100140BC2F0020B82F0020B52F002072
:1077B000B42F0020AC2F002000E100E02DE9F04FB5
:1077C0008C4A8D4913780978DFF85082994285B048
:1077D000D8F800A000F07B810133DBB2022B08BF98
:1077E000002386481370864A076852F823107B18D6
:1077F00023F07F4300240360534626462046A446D8
:10780000ABB11A688A4200F26581DC68C3F800C037
:10781000891A1044DA6934B13D1825F07F45C3E96F
:107820000154DE611E4613460124002BE9D1002CD1
:1078300040F07C8101230093724B734FDFF8E0919D
:1078400043F00103019355464FF0000B46B3D6E9D0
:1078500001C13446F669694B6C481A68ACEB020307
:1078600023F07F43834248D80B4423600022012148
:10787000C4E90122E2612174002D5DD02A689A4298
:107880004DD2284603E00A689A424FD20846C169A1
:107890009B1A0029F7D12360E161C461002ED6D183
:1078A00078783978884264D00B4603EB43034C1C4C
:1078B000BA7807EBC303E1B28A421A79397004BF80
:1078C00000213970022A9C6844D0032A38D0012A4A
:1078D000E8D1227C002AE5D1D3F80CC0C4F804C05A
:1078E0001969A1605869E06099F800009B69A3617B
:1078F0000028B0D062609446ADE7A2EB0C0222F003
:107900007F428A4202D28B1A2360AFE70023012212
:10791000C4E90033A360E36122746DB12A68C8F83A
:107920000040D31A2B60E56125468FE7D21A0A6022
:107930002360E161C461B1E7C8F80040254685E7EE
:10794000002DAFD000232B74ED69002DFBD1C8F8BA
:107950000050A5E74DB1AC422B4603D1E4E0944280
:107960002FD01346DA69002AF9D100232374884204
:107970009AD1BBF1000F01D1554553D0002D56D1FE
:10798000234E244A1F4C4FF480334FF4003101271B
:10799000C2F880103C43C6F848334FF43C60C6F848
:1079A00008337760A047154BB7604FF43C601D600B
:1079B000A047194B1D70002389F8003005B0BDE8C1
:1079C000F08FA34200F09180E0692168D86100281F
:1079D00000F086802A4603680B440360AA424FF0F9
:1079E00000033978787823741CBF15464FF0010BDB
:1079F000BDE700BFB42F0020B52F0020B82F002016
:107A0000AC2F0020E09E03009C2E0020FEFF7F0094
:107A10000010014000E100E0A92F0020BC2F002051
:107A2000A82F0020009B002BC5D0002DA8D0434BD1
:107A3000434A1C68D2F80465424FD5F800A0397853
:107A4000331B23F07F43DD1CB9B93F493F4B4FF453
:107A50008030C2F844034FF00108C2F804034FF429
:107A60000030C1F8800143F001030860C2F80080D3
:107A70004FF43C60984787F80080AA452CBF04EB80
:107A80000A0363192E4923F07F43C1F84035D1F82A
:107A90000425921B9B1B22F07F4223F07F4303327D
:107AA0009A4288D9294BD1F80425C1F8402543F0E2
:107AB00001034FF43C609847234B4FF40032C3F866
:107AC0000021002389F8003005B0BDE8F08F0026C2
:107AD0000096B1E674BB521A1A6001230093ABE61C
:107AE000002339787878237441E71946EA69C8F8A1
:107AF000002092B9CDE90231114BDFF840C00120DE
:107B00009860019B89F80000CCF800204FF43C609D
:107B10009847DDE90231D8F80020C8690968D861C2
:107B200000287FF458AF59E72946DFE7C8F800304E
:107B30009A467FE6C8F800309A46CCE7B82F002076
:107B400000100140A92F002000E100E0E09E0300AA
:107B50002DE9F8431F4D204E204FDFF898804FF459
:107B600080334FF400324FF001090024C6F8802022
:107B700047EA0907C5F848334FF43C60C5F80833B5
:107B8000C5F80490B847C5F808904FF43C60C8F8B1
:107B90000040B847124A134B13491C601470134B32
:107BA000134A0C700B2114701C8099704FF48012D2
:107BB000C023C6F8802186F814333260C5F8084522
:107BC00086F81133D5F80435C8F800302046BDE8F2
:107BD000F88300BF0010014000E100E0E09E0300D8
:107BE000A92F0020BC2F0020B42F00209C2E0020A5
:107BF000B52F0020B82F0020074B9B784BB132B136
:107C000028B10368187C20B959745A61704707205D
:107C100070470820704700BF9C2E00202DE9F047D8
:107C2000264CA37882B0002B3CD000283AD00429FF
:107C30003CD94369002B35D0814602A899F8113010
:107C40000026012B00F8016D0CBF8846B046174690
:107C50008A4600F0F3F96378A17822789DF807004E
:107C60005D1CEDB2A94208BF3546AA4222D003EB03
:107C7000430304EBC3030121114AC3F808901971AF
:107C8000D2F804256570C3E9032AC3E9058700F02B
:107C9000FBF90C4B4FF480123046C3F8002102B0C0
:107CA000BDE8F087082002B0BDE8F087072002B0E9
:107CB000BDE8F08700F0E8F90420F0E79C2E0020F2
:107CC0000010014000E100E0F0B51A4CA37883B049
:107CD00043B338B343692BB3064602A8002500F826
:107CE000015D357400F0AAF96278A77821789DF8D3
:107CF0000700531CDBB29F4208BF2B46994214D0A9
:107D000002EB420204EBC202022196601171637021
:107D100000F0BAF9084B4FF480122846C3F800214E
:107D200003B0F0BD082003B0F0BD00F0ADF90420B1
:107D3000F9E700BF9C2E002000E100E030B5047898
:107D4000012C83B027D017D3022C13D1384B394DD7
:107D50001A78C168AA5C01918DF80040002A33D1DD
:107D600003F10C000122344903F0C0F9334B68469B
:107D70001B68984703B030BD31493248FFF7B8FC63
:107D8000002844D002A8032300F8083D2B4B1B68B1
:107D9000984703B030BD43682B4D19782846FFF74C
:107DA0008FFC40B3254B01908DF800401B6868465E
:107DB0009847A968EB68AA885B1A9A420AD2234BB3
:107DC00001221A7003B030BD181D01221A4903F0B8
:107DD000A5FCCBE71648174A0378D35C2BB90122E0
:107DE00015490C3003F082F9C4E70122124904302E
:107DF00003F094FCBEE7AA68EB689A42D9D002ABC4
:107E00000E4A03F8080D126818469047D1E7084853
:107E1000084A0378D35C2BB9012209490C3003F0DE
:107E2000F3F8A7E701220649043003F017FCA1E7A5
:107E30009C2A002048C80020E82F0020C02F0020E6
:107E4000EC2F0020D82F0020C42F0020D42F00209A
:107E50002DE9F045324C89B02260002955D00C46FE
:107E600080468A882F4809689A46FFF719FC10B1A6
:107E700009B0BDE8F085A289A1682B48FFF710FC86
:107E80000028F5D1294D98F810C0D8F81470284E64
:107E90000FCD6C460FC495E80F0098F811501CF1F7
:107EA000000C18BF4FF0010C002D84E80F00D8F82B
:107EB0000850D8F80040D8F80430069714BF0E22B6
:107EC0000022D8F80C708DF8152069463046194A02
:107ED0008DF81CA08DF814C0CDE90275CDE90034F1
:107EE00002F00CFA0028C3D1D8F80030124A01334E
:107EF0001070BDD0114A3378D35C53B906F10C0031
:107F000001220F4903F0F2F8B2E7072009B0BDE8FB
:107F1000F085301D01220A4903F000FCA8E700BFEC
:107F2000C02F0020C42F0020D82F0020E89E03007F
:107F30009C2A00203D7D0200D42F002048C800204C
:107F4000E82F002070B5114C014611482678FFF744
:107F5000CFFB05460EB9284670BD0E480E4A037881
:107F6000D35C0022227053B90C3001220B4903F07C
:107F7000BDF80028EFD0FFF769FB284670BD01224D
:107F80000649043003F0CAFBF3E700BFD42F0020FA
:107F9000C42F00209C2A002048C80020E82F002081
:107FA00070B501461548FFF78BFB044608B1204623
:107FB00070BD134D134E2B78F35CABB905F10C007B
:107FC00003F088F80028F2D10F490C48FFF790FB26
:107FD0000028ECD12B780C49F35C012243B90B4803
:107FE000BDE8704003F010B8281D03F089FBE9E7F5
:107FF0000748BDE8704003F031BB00BFD82F002018
:108000009C2A002048C80020EC2F0020A82A00202D
:10801000A02A002008B50748074A0378D35C23B993
:108020000C3002F073FF002008BD043003F096FA14
:10803000002008BD9C2A002048C8002070B4EFF33F
:10804000108472B60D4B9A68AAB90D490D4E0125E0
:108050009D60D1F8805035401D60C1F88060D1F836
:1080600084505D604FF0FF33C1F88430027004B972
:1080700062B670BC704701230370F8E73CC800206B
:1080800000E100E0FC06FFBD094B9A687AB170B9C7
:1080900010B4EFF3108172B6064A1C6814605C6875
:1080A0005460986001B962B65DF8044B7047704740
:1080B0003CC8002000E100E099B110B4B2FBF3F439
:1080C00003FB1424A4B244B9C0E900148460828183
:1080D000C38120465DF8044B704709205DF8044BCE
:1080E00070470E20704700BF82B050E8022FC18851
:1080F000B2EB324F4FF0000317BF92B241EA014199
:1081000042EA014104E04268B2EB324F08BF01236A
:1081100040E80212002AE8D18DF807309DF80730B8
:10812000002B0CBF1120002002B0704730B482B089
:1081300050E8013F9DB2C48925448489A54228BFE7
:108140002D1B0489A54202BFBFF32F8F002207E039
:10815000C5EA030540E80154002CE9D14FF00102C3
:108160008DF803200193019B9DF803200B602AB139
:108170000B880068184402B030BC704702F0FF035F
:108180001846F8E70A884B889A4201D000207047C9
:1081900050E8012FC2EA024240E80123002BF7D148
:1081A0000120704730B482B050E8023F1FFAA3F5B7
:1081B000C488A54202BFBFF32F8F00220DE0C489FF
:1081C00025448489A54228BF2D1BC3EA054540E804
:1081D0000254002CE8D14FF001028DF803200193E6
:1081E000019B9DF803200B602AB14B88006818445E
:1081F00002B030BC704702F0FF031846F8E700BF3A
:108200000A884B889A4201D00020704750E8022F1C
:10821000C2EA224240E80223002BF7D10120704736
:1082200001F01F024B09012100EB8300914000F097
:108230007FB800BF10B5012301F01F04490900EB0E
:10824000810003FA04F100F067F8E04000F001005B
:1082500010BD00BF01F01F0201234909934000EB4C
:108260008100D94300F070B84B0901F01F0150F8AC
:108270002300C84000F00100704700BF2DE9F84F0F
:1082800001F1FF394FEA591300F104090F46064680
:1082900009EB8309044600254FF0010823686FEAC3
:1082A000030B9BFAABFBBBFA8BFBBBF1200F20D07F
:1082B000AB445F450CD81CE02368DB4393FAA3F37F
:1082C000B3FA83F3202B05EB030B12D05F4510D9D3
:1082D0000BF01F0A4FEA5B1008FA0AF106EB800068
:1082E00000F01AF820FA0AF0C307E5D45846BDE8B2
:1082F000F88F04344C4505F12005CFD1BB465846D4
:10830000BDE8F88F50E8002F0B4640E8003C9CF099
:10831000000FF7D11046704750E8002F42EA0103E2
:1083200040E8003C9CF0000FF6D11046704700BFBB
:1083300050E8003F43EA010240E8002C9CF0000FA7
:10834000F6D11046704700BF50E8003F03EA010233
:1083500040E8002C9CF0000FF6D11046704700BF9B
:1083600050E8002F02EB010340E8003C9CF0000FB6
:10837000F6D11046704700BF50E8003F03EB010202
:1083800040E8002C9CF0000FF6D11046704700BF6B
:1083900050E8003FA3EB010240E8002C9CF0000FE6
:1083A000F6D11046704700BF012350E800CF4CEAD9
:1083B000030240E8002191F0000FF6D160467047BB
:1083C000F0B443681BB1384AD468A34246D20023B4
:1083D000364F0B807A684FF0010C02F580544FF64F
:1083E000FF76083294420ED8BCF1020FA1F800C00B
:1083F00007F1140754D07A6802F580540832944289
:108400004FF0020CF0D913680133EDD053880333D9
:1084100002EB83039C42E7D39588B5420AD01588C6
:1084200045B1956803689D4211D05388033302EB30
:108430008302D7E79C42D7D91A6801321A46D3D0B3
:108440005D88033503EB85039C42E5D2CCE7184BEE
:1084500042601B8903810120F0BC7047126993427E
:10846000B5D813F00305B2D1114A04891289944298
:10847000ADD104689A689442A9D10C4842689342ED
:1084800003D902F58052934207D38269934207D9F8
:1084900002F58052934203D201250D800120DBE7D3
:1084A0000020F0BC704700BF342D00203030002089
:1084B00014300020F0B5334C334DB4F802C062687C
:1084C0004FEA8C0606EB0C0305EB830383B0596877
:1084D00001F58050002A52D05388033302EB830207
:1084E000904213D8664405EB8605EB68002B3DD01F
:1084F000264B2748196802229A800525002301226D
:10850000257003B0BDE8F04001F002BA13680133F2
:10851000E8D05388033302EB83038342E2D84FF65B
:10852000FF7E9788774514D0178897B1626053888B
:10853000164D1748AE882968033300259BB2009575
:108540009B0001EB86010325257001F0ADF903B016
:10855000F0BD9842C6D91A6801321A46C2D05F8867
:10856000033703EB87039842DBD2BBE708480425B7
:108570000122257003B0BDE8F04001F0C9B901F156
:108580000802ADE71430002030300020F830002021
:10859000342D00202DE9F04FAC4E89B004464FF643
:1085A000FF773568002D00F0D9802A78531E052BFF
:1085B00067D8DFE803F05931311D1D03002C40F06E
:1085C000C380DFF8B0C29CF80C209CF80030002A71
:1085D00000F05281013B8CF80C40062B51D8DFE8AB
:1085E00013F0E703F8020302D8015000FB02C802AF
:1085F000002C40F0A9802B79012B00F04A81C0F0BB
:10860000DE800DF10C08022B0394C8E90244C8F87F
:1086100010403ED120463DE0B5F81490AB7D002CD3
:1086200000F0A380022BEA8840F2C4804FEA89045C
:10863000DFF8388204EB090108EB8101D31C0A89B9
:1086400013440B81EA884C4408EB84040DF10C08B8
:108650006389033B9B1A00226381C8F808200392B8
:10866000C8E90322012015E0002C40F097802B7907
:10867000032B00F2DF80DFE813F080013D0155019C
:10868000600100230DF10C08C8E90333C8F8083075
:1086900003930F2004902B78023B042B0AD8DFE8C9
:1086A00003F0472F2303430004238DF80C30EB889D
:1086B000ADF81830664C04F1100554F8043B404600
:1086C00003B19847A542F8D1624963480024346059
:1086D000FFF796FD01216148FFF75AFE00287FF45D
:1086E00060AF09B0BDE8F08F03238DF80C30EB8844
:1086F000ADF818302B89ADF81A30EB680593D9E73F
:1087000002238DF80C302B89ADF81830AB88ADF80A
:108710001A30EB680593AB7DA3F10603B3FA83F33C
:108720005B098DF81C30C5E705238DF80C30C1E7D7
:1087300001238DF80C302B89ADF81830AB88ADF8DB
:108740001A30EB680593B5E70DF10C080023C8F863
:1087500008300393C8E9033301209BE73D493E48B5
:10876000FFF720FD054630601FE74FEA8904DFF878
:10877000FC8004EB090108EB8101B1F808A049680D
:1087800001EB8A0A062B00F2B682DFE813F0CC0177
:108790009301A501B80141016C0186010DF10C089E
:1087A0002F4A002353600393C8E90233C8F81030FE
:1087B00001206FE7DFF8B4804FEA890443E7022322
:1087C0002B71CDE904440DF10C08EB68039340468E
:1087D0000DF10A01FFF7F4FD002800F0C1810499B2
:1087E000204A8B88EB800B882B811F480094042340
:1087F000BDF80A4001F058F8002840F0DE821B4B1B
:1088000004EB840403EB84040123237469E701234C
:108810009A001A4408EB820300205968009008234C
:1088200008F82200124A104801F03EF800283FF4F0
:1088300058AF35680A4A0DF10C08002353600393C2
:10884000C8E90233C8F810300E2023E72C3000208E
:10885000FC2F002024300020E4300020F4300020E1
:108860000C300020089F0300342D00203030002001
:108870000C9F030014300020072B00F28382DFE8F6
:1088800013F0FA01810281029D01E601780178016D
:10889000C001BF4B1B78002B00F05381DFF8F4E2DE
:1088A000BEF80490B9F1010F15D8DFF80C8309EB7D
:1088B000890208EB8202043212F8043C002B00F01B
:1088C000088209F1010399B201299946AEF80430F2
:1088D00002F11402F0D90DF10C0808220021AD4874
:1088E0000FF0DBF80020C8F808000390C8E9030087
:1088F0003568CFE6DFF8C08298F80030022B00F030
:10890000688298F81430022B81D0A14B0DF10C082D
:10891000002001221A7003905860C8E90200C8F8CC
:108920001000B7E69C4A9D481168002302242B7171
:108930009480012200F0ECFF78E7974C984A216878
:108940009648DFF874824FF0000985F804900823F8
:10895000CDF8009000F0A8FF924B25685B88A188B5
:1089600003EB830308EB830208F82390536823602A
:10897000022355601181A38058E7874B8A4A196802
:10898000864801232B7100230093082300F08CFFFD
:108990004CE7BCF80230DFF8208203EB830308EBDE
:1089A0008308D8F80C30002B00F0DC817A4B7B4830
:1089B000196802229A8005228CF8002000230122E7
:1089C00000F0A6FF00283FF48CAE0DF10C08002348
:1089D00041F61D523568C8F808300393C8E90333DF
:1089E000904208BF184655E6DCF804206A485388D0
:1089F00084880168694801EB8401033300240094F2
:108A00009BB203249B008CF8004000F04DFFD9E797
:108A1000664BAA6966491A604FF0000B1846C3F806
:108A200004B0FFF7CDFC002800F0CA810223AB752B
:108A300004235146CDF800B0EA18584800F034FF3E
:108A400000283FF44EAEAB7DEA88022B4FF00E00BB
:108A500026D84C4408EB8408B8F80A30033B9B1A2C
:108A6000A8F80A30B1E7524B504AB3F800A0516859
:108A70004A48504A00234FF0060C85F816C0009370
:108A8000042300F011FF0028DDD10AEB8A0A08EB6D
:108A90008A08012388F8103023E6EA8841F61D5041
:108AA00004EB090108EB8101D31C0A8913440B81F3
:108AB000EA88CEE7032A0CBF052306230022AB7504
:108AC0000AF104010092042305F10802334800F082
:108AD000EBFE0028B7D104E62B693048002B14BF09
:108AE000032301230022AB750AF10801009204233D
:108AF00005F10C0200F0D8FE0028A4D1F1E5EB88C6
:108B00002A6926484FF0010C85F816C04FF0000C7A
:108B10000AF10C019B00CDF800C000F0C5FE002852
:108B20003FF4DFAD8FE702230022AB7504230092F0
:108B30005146EA18194800F0B7FE00283FF4D1ADBD
:108B400081E70DF10C080822214612480EF0A5FF1E
:108B50000394C8E90244C8F810403568022099E53A
:108B60000A200023C8E90033C8E90233C8F81030EE
:108B700090E5094B0C4A1968084800230093CCF88B
:108B8000043007238CF80030082300F08DFE19E72D
:108B90000C30002008310020F8300020342D002057
:108BA0000C9F030014300020149F0300F02F0020BE
:108BB00004310020089F030030300020884ADCF890
:108BC00004109388498803330B44022193808CF866
:108BD0000010FFF76FFCF5E6BCF80220DFF810820A
:108BE0009300134408EB830806200023D8F80410F0
:108BF0007C4A00938CF8000008237B4800F054FE68
:108C0000E0E601238CF800309CF80A304BB1DFF825
:108C1000E081D8F80C3000228CF80A20002B00F0FC
:108C2000AB809CF80B30002B43D0DFF8C481D8F820
:108C3000203000228CF80B20002B3AD198F82430F9
:108C4000BBB30123ACF80230FFF734FCBAE6BCF842
:108C50000220DFF89C81624C9300991808EB810197
:108C600020684D68B4F804E0486002202560A1F84F
:108C700008E0A080B5E7DFF87881BCF8081098F824
:108C8000142098F80030B2FA82F252090131B3FA96
:108C900083F35B098CF80B20ACF80810002201214B
:108CA0008CF80A30ACF802208CF80C208CF80010FC
:108CB000ACE70DF10C080020C8F808008CF80000A3
:108CC000ACF80200CCF804000390C8E90300356852
:108CD000E0E41368DEF8001003F5805C03F1080A95
:108CE000002968D04B88033301EB83018C4505D8FC
:108CF000CEF80040E5E5EA880F20D1E60B680133A5
:108D0000F6D04B88033301EB83039C45F0D388886E
:108D1000B8421AD0B1F800B0BBF1000F15D0EB8803
:108D2000CEF800108342DBD1002300932F4A2E4857
:108D3000042300F0B9FD00284DD109EB890908EBA7
:108D40008908012388F81030CBE49C45D0D91968F4
:108D500001311946CCD05888033003EB80039C4581
:108D6000D5D2C5E704228CF80020D8F804101E489C
:108D7000012200F0CDFD25E698F81020002A3FF4EE
:108D800050AF5FE7013B062B3FF67BAC01A252F8E8
:108D900023F000BFB18D0200D38B0200E9890200ED
:108DA0009389020083860200D98B0200738B020034
:108DB0009CF80A302AE7514698E735680E20D0E63D
:108DC0000DF10C080390C8E90200C8F810000A2051
:108DD00060E400231CE535680E200DF10C08C0E6A8
:108DE000F83000200C9F0300342D0020089F030062
:108DF000303000204068FFF7CDBB00BF38B5084BCE
:108E00001A68042A0AD01D68064C02460121184639
:108E100044F82520FFF7B0FA002038BD0C2038BDFB
:108E200000310020FC2F00202DE9F04FAB4C8BB01F
:108E300022780023CDE90533CDE90733099372B1D8
:108E4000A74C04F1100554F8043B05A803B198475A
:108E5000A542F8D1002528460BB0BDE8F08F201DB3
:108E600002F0FF06FFF7A0FA07460028F2D140F60D
:108E7000F8731B685D1C00F0FA804FF08052116996
:108E80005269DFF884829749C8F810304046A3F54C
:108E900040530022C8F80C3000F0FEFC05460028C4
:108EA000D9D11C238C2290499048DFF860A2FFF7AB
:108EB00003F9D8F80C90DFF85882029609F5405370
:108EC00048464FF0030B2A469946002800F09D8043
:108ED000036887498B4240F09880436885498B42FC
:108EE00000F0188101318B4240F08F80029B63B10A
:108EF00002EB820C08EB8C0102260132DAF800301A
:108F000008F82C6092B24B600E818168CAF80000AC
:108F10004FF0020C0131AAF804C000F5805300F1B3
:108F200008062DD04189033106EB81008342C0F051
:108F3000B58060464FF6FF7E0192B6F804C0F44556
:108F40000FD0B6F800C0BCF1000F0AD06A4AD6F8BC
:108F500008C01268944504D9674AC2F800C07188F5
:108F60000331084480B2AAF804007188033106EB8B
:108F70008106B34200F286800228019A40F03181D6
:108F800004210F43994518469FD1BBF1010F40F2D0
:108F90008B80FFB2022F00F08780062F00F08E80BA
:108FA000002F00F0818004A95048FFF7BFF81C2271
:108FB000044600210EF071FD002C00F01081012309
:108FC000013F23700A2F09D8DFE807F016081608BA
:108FD0001C081C08190619000223237104A9434820
:108FE000FFF7D0F801214548FFF7BAF900287FF4D0
:108FF00031AFFFF7CFFA2EE700232371EEE703230B
:109000002371EBE701232371E8E700F58053014664
:1090100001E08B4214D00E68013601F10401F8D052
:1090200002EB820108EB81060BF1FF3B01324FF0AE
:10903000030C1FFA8BFB92B208F821C07060A1E705
:10904000DAF8001091B32E4E02EB820108EB810C8E
:109050007280022602F1010E08F821601FFA8EF2DA
:10906000CCF80400ACF8086047F001078AE7254B0C
:109070004FF080521B6811695269581C08BF02FBEF
:1090800001F3FEE6316801313FF476AF71880331B8
:1090900006EB810C6345BFF450AF019A4FF4806139
:1090A000AAF8041008216CE70B25D4E60221AAF8DF
:1090B00004100121CAF800000291D5E7084D0122F1
:1090C0000023227005F11006636055F8043B05A8E3
:1090D00003B19847AE42F8D1BCE600BF0C30002087
:1090E000FC2F0020289F030058300020E43000208F
:1090F000DEC0ADDEFE011EF128300020F43000207D
:109100001430002014100010342D0020F8300020FE
:109110003030002093000393134408EB830C0021AC
:1091200008F823104FF00203ACF80830CCF8040024
:109130008668013600F5805300F1080140D040896F
:1091400000F1030E01EB8E0E73452FD30226019220
:10915000E646B1F804C04FF6FF72944537D0B1F837
:1091600000C0BCF1000F32D01F4AD1F808C012680D
:10917000944505D91C4ABEF80860C2F800C048886A
:1091800006440336B6B2AEF808604888033001EBF7
:1091900080018B4219D90868013016D0488800F147
:1091A000030C01EB8C0C6345D3D2019A0399114453
:1091B00008EB81014FF480604FF001060E740881C6
:1091C000013292B247F00207DCE6019AF8E74FF06D
:1091D00001028EF810204888BEF80860D0E7082504
:1091E00039E60821CDE600BF2830002008B301B3DE
:1091F00070B582B00C460DF106010546FFF7E0F8A8
:10920000A0B1BDF806000C4B6E6800EB800003EBCC
:10921000800001210C30FFF7AFF826606B68012257
:109220000C3300206360AA7202B070BD0A2002B045
:1092300070BD0520704700BF30300020E8B110B588
:1092400082B00DF106010446FFF7BAF890B1BDF8FF
:1092500006300C4A03EB830302EB8303DA6872B136
:10926000A27A62B1DA680021013A0846DA60A17296
:1092700002B010BD0A2002B010BD052070470620C4
:1092800002B010BD30300020484B1B78002B32D08C
:10929000002934D00A884FF6FF739A4229D04B88B0
:1092A0003BB34B689B072CD12DE9F043B1F8088004
:1092B00008F103039BB240F2FD32934283B01CD805
:1092C0003B4A17783FB95689148934441C44A4B2E8
:1092D000B4F5806F17D3147D3CB9D68B948B34448E
:1092E0001C44A4B2B4F5806F5DD3072003B0BDE881
:1092F000F08304207047022070470920F6E705201C
:10930000704703207047BC464FEA8C09E14402EBEA
:10931000890933440C46054601A92648A9F80A30B4
:10932000FEF704FF1C22064600210EF0B6FB5EB3DA
:1093300002234FF00009B782337086F816906368F5
:10934000336101211C48FFF717F8F060238833814F
:109350006388B38001A9A6F80A90A6F8068015488C
:10936000FEF710FF45B1C5F80490F268134B2A6070
:109370001B8985F80A902B8101211148FEF7F0FF27
:10938000044660B10020B1E7B9F80A30C8F57F485B
:1093900008F1FD089844A9F80A800820A6E7FFF71D
:1093A000F9F82046A2E70127BC46ADE70C300020C3
:1093B00030300020E430002028300020143000201D
:1093C000F4300020002836D0484B1B78002B30D0DA
:1093D000002930D00A884FF6FF739A422FD04B886D
:1093E0006BB34B689B0728D12DE9F043B1F8089087
:1093F00009F103039BB240F2FD32934283B020D8BF
:109400003B4A15783DB9578914893C441C44A4B2A1
:10941000B4F5806F17D3147D3CB9D78B948B3C4443
:109420001C44A4B2B4F5806F5BD3072003B0BDE841
:10943000F083022070470520704703207047042006
:1094400070470920F2E7A846AC464FEA8C05654410
:1094500002EB85053B4406460C4626486B8101A974
:10946000FEF764FE1C22074600210EF016FB57B3E0
:1094700000250323A7F814803B70BD7563683B612A
:1094800001211D48FEF778FFF86023883B8163883F
:10949000BB800423A7F80690BB753368BB6101A9A4
:1094A0007D811448FEF76EFE7560FA68134B3260DA
:1094B0001B89B572338101211148FEF751FF044623
:1094C00058B12846B2E76B89C9F57F4909F1FD0912
:1094D0009944A5F80A900820A8E7FFF75BF8204612
:1094E000A4E74FF00108C446AFE700BF0C300020EE
:1094F00030300020E43000202830002014300020DC
:10950000F4300020184B1B7823B34FF6FF739842BA
:109510001ED070B582B001A904461448FEF706FEBD
:109520001C22054600210EF0B8FAADB10523012634
:10953000EC8001A92B702E710C48FEF723FE3146FA
:109540000B48FEF70DFF044648B1002002B070BD85
:109550000420704702207047082002B070BDFFF75A
:1095600019F8204602B070BD0C300020E430002015
:10957000F4300020194B1B78EBB110B582B001A973
:109580001748FEF7D3FD1C22044600210EF085FA91
:109590000CB30623237001A91148FEF7F3FD114B0C
:1095A0001A7852B901211048FEF7DAFE044668B174
:1095B000002002B010BD02207047012201210A489C
:1095C0001A73FEF7CDFE04460028F1D1FEF7E2FF44
:1095D000204602B010BD082002B010BD0C300020A3
:1095E000E430002014300020F43000202DE9F04356
:1095F000344C2478002C60D03AB333B39F88012FC9
:109600005ED8314C07EB870C013704EB8C0CBFB2F2
:109610004FF6FF7E4FF000089CF8004074B91C68BC
:10962000DCF8045005F58056002C43D065880335DE
:1096300004EB8504B4420BD3C3F80080022F9F8053
:109640000CF1140C3CD00227E6E70520BDE8F083BE
:1096500025680135F0D06588033504EB8505AE42F9
:10966000EAD3B4F80490F14515D0B4F80090B9F1FC
:10967000000F10D01C60A5888542D1D125888D426D
:10968000CED1A16811601968104B51601B891381FC
:109690000020BDE8F083AE42CED92C6801342C46C0
:1096A000CAD0B5F8029009F1030905EB8905AE426D
:1096B000D7D2C1E705F10804BCE70220BDE8F0837A
:1096C0000A20C3E70C300020303000201430002086
:1096D000334B1B78002B5CD051B34AB32DE9F041DA
:1096E0009588012D5AD82F4F05EB850307EB83078B
:1096F00001353B78ADB24FF6FF7C4FF0000E43B121
:10970000022D958007F1140748D03B780225002BE5
:10971000F6D113687C6804F58056002B3BD05C883A
:10972000033403EB8403B34204D3C2F800E0E7E759
:10973000052070471C680134F7D05C88033403EBC4
:109740008404A642F1D3B3F80480E04512D0B3F804
:109750000080B8F1000F0DD013601C888442D9D16D
:109760009B680B601268104B4A601B890B810020BC
:10977000BDE8F081A642D8D9236801332346D4D06E
:10978000B4F8028008F1030804EB8804A642DAD298
:10979000CBE70220704704F10803C4E70A20E7E79B
:1097A0000C3000203030002014300020334B1B7868
:1097B000002B5CD051B34AB32DE9F0419588012DBF
:1097C0005AD82F4F05EB850307EB830701353B780C
:1097D000ADB24FF6FF7C4FF0000E43B1022D9580E5
:1097E00007F1140748D03B780225002BF6D1136807
:1097F0007C6804F58056002B3BD05C88033403EB77
:109800008403B34204D3C2F800E0E7E705207047C1
:109810001C680134F7D05C88033403EB8404A6424F
:10982000F1D3B3F80480E04512D0B3F80080B8F16A
:10983000000F0DD013609C888442D9D19B680B60C7
:109840001268104B4A601B890B810020BDE8F08133
:10985000A642D8D9236801332346D4D0B4F8028075
:1098600008F1030804EB8804A642DAD2CBE7022011
:10987000704704F10803C4E70A20E7E70C30002032
:10988000303000201430002020B119B103680B6083
:10989000002070470520704720B119B101600B68A6
:1098A000114618470E20704750B32DE9F0414AB3D6
:1098B000D0F800E0BEF1000F27D01D4673B1476815
:1098C000D7F80480B3FBF8F708FB173737B942EA3B
:1098D0000104A40705D01020BDE8F0810920BDE8EF
:1098E000F081C468A142F6D301F1FF3C04696544EC
:1098F000A542F0D8DEF80C40A446BDE8F041604730
:109900000E2070470E20BDE8F0810820BDE8F081F0
:1099100000B3F0B5D0F800C0BCF1000F1CD0AAB164
:109920004768D7F800E00EF1FF370F4210D1C76843
:10993000B9420DD34D1E04690EFB0255A54207D84E
:10994000DCF81040A446BDE8F04060470920F0BDB7
:109950001020F0BD0E2070470820F0BD29DF7047B1
:1099600028DF70470846704700207047024B187A7E
:10997000003018BF01207047AC310020034B187A2B
:109980000122B0FA80F05A7440097047AC310020CF
:1099900008B510461A460EF05CF8002008BD00BF5E
:1099A00008B51422002104480EF077F80348FEF7AA
:1099B0009BFB002008BD00BFAC3100209C31002083
:1099C00010B5094C094B43602046FEF7EDFC40B949
:1099D00003F0DCFC1C2320748C2205490548FEF7AB
:1099E0006BFB002010BD00BFAC3100201C9F0300AA
:1099F000103100209C31002030B55E4C237A87B0B6
:109A0000002B3AD05C4B1B68022222721A79002A82
:109A10003ED0012A0CD1D3E903021044FFF7A0FF86
:109A2000002849D0112803D10123237207B030BD8B
:109A300019688A68C2B1002268460092C0E9022211
:109A40000325026101959A6805921A79002A4BD084
:109A5000012A07D102228DF80020DA68120302924F
:109A60005B6904938B6898470023444944482372F8
:109A70006360FEF7C5FB07B030BD40494048FEF7C4
:109A800091FB3D4A034610600028BDD16060F2E7BB
:109A9000D3E90525521BB2F5805F28BF4FF48052F1
:109AA000D3E903109208012A38BF0122294428442F
:109AB000FFF754FF0028B5D1227C002ADBD1227A9F
:109AC000002AD8D0022A0AD1E0601A79DAB1012A34
:109AD00005D1D3E9042101328A421A611FD0637C87
:109AE00073B103F043FCC6E701228DF800201A6928
:109AF0000292DA6803925B6904938B689847B3E734
:109B0000FFF77AFFB7E7D3E90512881AB0F5805F4F
:109B100094BF121802F5805291429A61DFD100225F
:109B2000227219688868A8B168460092C0E90122CB
:109B3000C0E903229A6805921A7982B1012A07D1F5
:109B400002228DF80020DA68120302925B69049306
:109B50008B68984709490A48FEF752FBBFE7012284
:109B60008DF800201A690292DA6803925B69049307
:109B7000EEE700BFAC310020C4310020C03100202E
:109B80009C3100202DE9F04782B082468946174873
:109B900001A990461F46FEF7C9FA10B304460021FA
:109BA0001C220D46124E0DF078FF0A9BC4F800A04F
:109BB000A360C4E90389676101A925710B48FEF719
:109BC000E1FA301DFEF7F0FB38B9747C34B9FFF7C9
:109BD00013FF204602B0BDE8F087284602B0BDE87A
:109BE000F087042002B0BDE8F08700BF9C31002060
:109BF000AC3100202DE9F04383B081460D46164874
:109C000001A917469846FEF791FA08B304461C22AC
:109C100000210DF042FF114EC4F8009001232D0BDE
:109C2000C4E90285676101A923710B48FEF7AAFA0E
:109C3000301DFEF7B9FB38B9747C34B9FFF7DCFE90
:109C4000204603B0BDE8F083002003B0BDE8F083F8
:109C5000042003B0BDE8F0839C310020AC3100202B
:109C600000F0FD03012B00D0704730B5604CA0F12F
:109C70000100B0FA80F0237A4009002287B02074F6
:109C80006274002B3AD05B4B1B68022222721A7955
:109C9000002A3ED0012A0CD1D3E903021044FFF779
:109CA0005FFE002849D0112803D10123237207B099
:109CB00030BD19688A68C2B1002268460092C0E9C6
:109CC00002220325026101959A6805921A79002AF9
:109CD0004BD0012A07D102228DF80020DA68120346
:109CE00002925B6904938B6898470023424943487A
:109CF00023726360FEF784FA07B030BD3E493F48E7
:109D0000FEF750FA3B4A034610600028BDD1606060
:109D1000F2E7D3E90525521BB2F5805F28BF4FF467
:109D20008052D3E903109208012A38BF0122294446
:109D30002844FFF713FE0028B5D1227C002ADBD18E
:109D4000227A002AD8D0022A0AD1E0601A79CAB150
:109D5000012A05D1D3E9042101328A421A611DD0BA
:109D6000637C63B103F002FBC6E701228DF800209B
:109D70001A690292DA6803925B690493B3E7FFF70A
:109D80003BFEB9E7D3E90512881AB0F5805F94BFAE
:109D9000121802F5805291429A61E1D1002222729A
:109DA00019688868A8B168460092C0E90122C0E934
:109DB00003229A6805921A7982B1012A07D10222F8
:109DC0008DF80020DA68120302925B6904938B68B5
:109DD000984709490948FEF713FAC1E701228DF8AF
:109DE00000201A690292DA6803925B690493EEE735
:109DF000AC310020C4310020C03100209C31002053
:109E0000831E012B00D9704730B58E4C237A87B062
:109E1000002B31D0022B2BD103286BD1E368013307
:109E2000082B79D9884B00221B68E26022720D252D
:109E300019688A68C2B1002268460092C0E902220D
:109E4000026101959A6805921A79002A00F0B9809A
:109E5000012A07D102228DF80020DA68120302924B
:109E60005B6904938B68984778497948FEF7C8F98D
:109E7000637C1BB103F07AFA07B030BD237A002B64
:109E80005BD0714B1B68022222721A79002A5FD0C4
:109E9000012A0BD1D3E903021044FFF761FD00282A
:109EA00069D0112802D101232372E5E719688A6875
:109EB000C2B1002268460092C0E902220325026175
:109EC00001959A6805921A79002A70D0012A07D163
:109ED00002228DF80020DA68120302925B69049373
:109EE0008B68984700235949594823726360FEF7ED
:109EF00087F9C1E7544B00221B68E2601A796AB106
:109F0000012AB5D1D3E9042101328A421A6111D064
:109F1000637C002BAED1B4E7E360F9E7D3E9051227
:109F2000881AB0F5805F94BF121802F580529142F2
:109F30009A61EDD1002525727AE744494448FEF73D
:109F400031F9414A0346106000289CD1606093E7D4
:109F5000D3E90525521BB2F5805FD3E9031028BF72
:109F60004FF480529208012A38BF01222944284424
:109F7000FFF7F4FC93E7227C002A7FF47DAF227A7E
:109F8000002A3FF479AF022A0AD1E0601A7912B3AD
:109F9000012A05D1D3E9042101328A421A6126D06F
:109FA000637C002B7FF466AFFFF726FD64E7012298
:109FB0008DF800201A690292DA6803925B690493B3
:109FC0008EE701228DF800201A690292DA68039266
:109FD0005B69049346E7D3E90512881AB0F5805F00
:109FE00094BF121802F5805291429A61D8D1002292
:109FF000227219688868A8B168460092C0E90122F7
:10A00000C0E903229A6805921A7982B1012A07D120
:10A0100002228DF80020DA68120302925B69049331
:10A020008B68984709490A48FEF7EAF8B8E7012221
:10A030008DF800201A690292DA6803925B69049332
:10A04000EEE700BFAC310020C4310020C031002059
:10A050009C310020064A074B10B5002414701C6088
:10A06000BFF35F8F0449054800F00AF8204610BD91
:10A07000D0310020D4310020489F0300C831002097
:10A0800001600B6843604A68934204BF0023436049
:10A09000704700BF436843B1026891680B44436056
:10A0A0005268934204BF00234360704710B570B1FB
:10A0B00001280BD10D4C2369A0703BB1D3E90023DB
:10A0C0000120226198472369002BF7D110BD074C6E
:10A0D000A36801226270002BF8D0D3E9002300208E
:10A0E000A2609847A368002BF7D1EFE7D831002092
:10A0F00070B910B5074CA368012262703BB1D3E977
:10A1000000230020A2609847A368002BF7D110BD60
:10A11000704700BFD831002030B5012883B01CD073
:10A1200015D3032811D100F047F902A800231F4CD2
:10A1300000F8013DFDF782FFE368013BE360E5685D
:10A1400065B39DF80700FDF79FFF03B030BD184BC6
:10A150000122C3F8802003B030BD02A80023134CB5
:10A1600000F8013DFDF76AFF237853B1E3689DF8DD
:10A17000070001330122E360A270FDF785FF03B001
:10A1800030BD0C486360A3602361E36000F006F912
:10A1900003F0FCF830B101232370E7E700F022F967
:10A1A000A570CEE700F008F9F5E700BFD831002030
:10A1B00000E100E0ADA0020036DF70474DDF7047E0
:10A1C0004EDF70474FDF7047012810B50BD00446B3
:10A1D00000F000FC034628B10A2C0BD00B2C11D048
:10A1E000092C0BD010BD00F0EFFB8047BDE81040FC
:10A1F00000F0F0BB0020BDE8104018470220BDE889
:10A20000104018470120BDE81040184710B501283C
:10A2100082B004461AD0032816D11D4BC02101225A
:10A2200083F800131A6000F0CFFB20B14FF0804399
:10A230000422C3F8042300F0CDFB28B14FF0804383
:10A240004FF46072C3F8042302B010BD02A80023CB
:10A2500000F8013DFDF7F2FE00F0B6FB10B120461C
:10A26000FFF7AAFF9DF80700FDF70EFF00F0B2FB15
:10A270000028E9D00120FFF7A3FF0028E4D1012046
:10A28000FFF79CFF0028DFD10120FFF79BFFDBE7F2
:10A2900000E100E030B585B0047845688DF80040F5
:10A2A000D0E90240064A074B039053F8213001954C
:10A2B0008DF8084052F821106846984705B030BD27
:10A2C000EC310020F431002030B585B004784568C9
:10A2D0008DF80040D0E90240064A074B039053F83E
:10A2E000213001958DF8084052F8211068469847B2
:10A2F00005B030BDEC310020F43100202DE9F043F1
:10A30000DFF8748006784B7F08F806300D46074664
:10A3100096460FCD89B06C460FC495E80F003D7886
:10A32000DFF85890DFF858C018F8055049F826E0D3
:10A3300084E80F004CF82600049665B1BEF1000FCA
:10A340000B4A694607F1040008BF002201F002F839
:10A3500009B0BDE8F083BEF1000F064A694607F177
:10A360000C0008BF002200F0DFFC09B0BDE8F0835C
:10A3700095A20200C9A2020048C80020F4310020C2
:10A38000EC31002050E8002F02EA010340E8003CD5
:10A390009CF0000FF6D11046704700BF054A1379B4
:10A3A0002BB9012110605371184611717047852037
:10A3B000704700BFFC310020084B1A68D20704D454
:10A3C000C021012283F800131A604FF08041044B32
:10A3D00002200122C1F818051A70704700E100E060
:10A3E0004AC80020044B01221A604FF08042D2F884
:10A3F0001834DB03FBD470470C00004010B5154B3C
:10A400001A6882B07AB10021134A19601B6850792A
:10A4100000934FF080410123009CC1F8083310B92C
:10A420001168537188470D4B1A6882B100221A6077
:10A430001B6801934FF080420221074B0198C2F83C
:10A4400008131B68012002B0BDE81040184702B095
:10A4500010BD00BF00010040FC310020040100409D
:10A460002DE9F047002388B0CDE90233CE4A1168C8
:10A47000012900F03B821E46CC4B1A68012A00F0ED
:10A480002782CB4B1A68012A00F01482C94B1A6844
:10A49000012A00F00182C84B1A68012A00F0EE81FF
:10A4A000C64B1A68012A00F0DB81C54B1A68012AE5
:10A4B00000F0C881C34B1A68012A00F0B581C24B75
:10A4C0001A68012A0FD100221A601B6801934FF00D
:10A4D000A042019BD2F81025BC4B0292D3F8103554
:10A4E000039346F0004616F0FF0F1AD0B84F01252F
:10A4F0000024A30003F180432E4203F5C0434FEA3A
:10A5000045050BD0D3F8100557F82420D3F81015C3
:10A51000C0F30520C1F3014102B190470134082C7A
:10A52000E7D1002E02DB08B0BDE8F087A84CA74FAA
:10A530004FF0FF33CDE9063394F960300DF1100888
:10A5400000225D1CC8F8042004924FF0010600F0C0
:10A55000F4805FFA83FC2CF0C00008AB4FEAD0090E
:10A5600003EB090E0CF007031EF8082C06FA03F3A0
:10A5700012EA030521D022184FEA9C1192F93020EB
:10A5800054F82220002A00F02981032900F02881B4
:10A590001F2800F2F98005464FF0A04C0CEB850C0B
:10A5A0001EF8185CDCF800E71D40CEF3014E40F0C9
:10A5B000DF80BEF1030F00F0E68194F96130581C92
:10A5C00032D0DBB223F0C00008AA4FEAD00E02EB73
:10A5D0000E0C03F007011CF8082C06FA01F912EA28
:10A5E000090F21D02218990992F9302054F822201D
:10A5F000002A00F0FB80032900F0FB801F2800F2F6
:10A60000E98003464FF0A04E0EEB83031CF818ECD4
:10A61000D3F800C71EEA090FCCF3014C40F0B88014
:10A62000BCF1030F00F09B8194F96230591C30D0CB
:10A63000DBB223F0C00008AA4FEAD00E02EB0E0CEA
:10A6400003F007011CF8082C06FA01F912EA090FB9
:10A650001FD02218990992F9302054F82220002A9C
:10A6600000F0D880032900F0D8801F287CD803464A
:10A670004FF0A04E0EEB83031CF818ECD3F800C784
:10A680001EEA090FCCF3014C64D1BCF1030F00F0BA
:10A69000528194F963305A1C34D0DBB223F0C000ED
:10A6A00008AA4FEAD00E02EB0E0C03F007021CF8CA
:10A6B000081C06FA02F2114224D004EB00099909A1
:10A6C00099F9309054F82990B9F1000F00F0988072
:10A6D000032900F098801F288BBFBE464FF0A04E84
:10A6E00003F01F0303460EEB83031CF818ECD3F8AA
:10A6F00000C71EEA020FCCF3014C20D1BCF1030FBE
:10A7000000F00081002D3FF40EAF4FF0A0430299FE
:10A71000D3F81035D7F81025994203D10399914207
:10A720003FF401AFDDE90401CDE9023294F9603074
:10A730005D1CCDE906017FF40CAF00253DE7BCF1BF
:10A74000020FDFD1032900F03081B9F1000F40F092
:10A75000F080D7E7BCF1020F9BD1032900F02881DC
:10A76000002A96D0904794E703F01F03BE4681E786
:10A77000BEF1020FE1D1032900F020810025002A5B
:10A780003FF41BAF904718E70CF01F05BC4605E7E8
:10A79000BCF1020F7FF448AF032900F00C81002ABE
:10A7A0003FF442AF90473FE7006100400461004042
:10A7B000086100400C6100401061004014610040DD
:10A7C000186100401C6100407C61004000030050A3
:10A7D0000432002003F01F03BE4615E70329ACD165
:10A7E00018F809501D4308F80950D1E603297FF4F1
:10A7F0001BAF18F80EA04AEA090A08F80EA0FDE6F9
:10A8000003297FF47FAF18F80EA04AEA020A08F87D
:10A810000EA060E703297FF43CAF18F80EA04AEAC7
:10A82000090A08F80EA020E7664AD2F804231706A2
:10A830007FF545AE00221A601B680093009B46F02E
:10A8400080063CE65F4AD2F8042352067FF532AE1A
:10A8500000221A601B680093009B46F0400629E620
:10A86000584AD2F8042391067FF51FAE00221A60E1
:10A870001B680093009B46F0200616E6514AD2F86A
:10A880000423D0067FF50CAE00221A601B680093EB
:10A89000009B46F0100603E64A4AD2F80423140748
:10A8A0007FF5F9AD00221A601B680093009B46F00B
:10A8B0000806F0E5434AD2F8042355077FF5E6ADD4
:10A8C00000221A601B680093009B46F00406DDE539
:10A8D0003C4AD2F8042397077FF5D3AD00221A60D3
:10A8E0001B680093009B46F00206CAE53549D1F883
:10A8F000046316F001063FF4BFAD136013680093C4
:10A90000009BB9E503297FF420AF4FF4003CD3F856
:10A91000002722F44032C3F80027D3F8002701357E
:10A9200042EA0C02EDB2C3F80027B9F1000F3FF480
:10A93000ECAEC847E6E603297FF412AF4FF4003EC1
:10A94000D3F800C72CF4403CC3F800C7D3F800C7C5
:10A9500001354EEA0C0CEDB2C3F800C700E703293D
:10A960007FF41DAF4FF4003ED3F800C72CF4403CF9
:10A97000C3F800C7D3F800C701354EEA0C0CEDB29E
:10A98000C3F800C70BE703297FF4F9AE4FF4003595
:10A99000DCF8003723F44033CCF80037DCF800371C
:10A9A0002B43CCF800370125E9E64FF4403CAEE7F5
:10A9B0004FF4403EC4E74FF4403ED5E74FF44035F6
:10A9C000E6E700BF00600040014B1868704700BF19
:10A9D00070320020014B1868704700BF78320020A9
:10A9E00010B54FF0804386B0D3F80443620705D515
:10A9F000D3F8082103F58473002A4ED1A30603D5AA
:10AA00002A4B1A68002A3FD1600603D5284B1A68E2
:10AA1000002A2FD1210602D5264B1A680ABBE2056F
:10AA200002D5254B1A6892B9A3050BD5234B1A689A
:10AA300042B100221A60224A1B6800930220136868
:10AA4000009A984706B0BDE81040FFF7D7BC002237
:10AA50001A601B4A1B68019301201368019A9847EA
:10AA6000E2E700201860164A1B6802931368029AF6
:10AA70009847D4E700221A60124A1B68039301200A
:10AA80001368039A9847C5E7002018600D4A1B68B1
:10AA900004931368049A9847B6E700221A600A4A9A
:10AAA0001B6805931368059A9847A7E714010040AF
:10AAB000180100401C01004020010040240100401A
:10AAC000783200207432002070320020014B1B6865
:10AAD000184700BF7C320020104B984201D0002064
:10AAE000704730B583B002A8002300F8013D0D4641
:10AAF000FDF7A4FA0A4B1C7934B19DF80700FDF765
:10AB0000C3FA112003B030BD01229DF807001D607B
:10AB10001A71FDF7B9FA2046F4E700BF00200040A3
:10AB20007C320020034B984203D1034B00221A6071
:10AB30001A717047002000407C320020084B094900
:10AB40001B68094AA1FB03139B0C916800FB03F0EF
:10AB50009368CB1A23F07F438342F9D3704700BF39
:10AB6000982A002083DE1B4310E000E030B56C4AD9
:10AB7000D2F8043399058BB066D5D2F82431002B76
:10AB800062D00023C2F82431D2F8243103934FF469
:10AB90000171644B0398C2F8081393F8291009B99E
:10ABA000012151605E4902228DF81820D1F88024DD
:10ABB000C1F880249869D96809920022CDE907106C
:10ABC000C3E90622D3E9001406A8A047544AD2F8E4
:10ABD0001C31BBB1534B186A5969884269D350483C
:10ABE0000022C0F81C21D0F81C010190019849B145
:10ABF00098688DF8182008915A610790D3E90012DF
:10AC000006A89047464AD2F84431DBB10021454BB3
:10AC1000C2F84411D2F8440193F82910009000982A
:10AC200009B1012111609A6962B10022586AD9689C
:10AC30009A610122CDE907108DF8182006A8D3E902
:10AC4000001290470BB030BD354AD2F804335B0791
:10AC5000BCD5D2F80831002BB8D0324B9969002905
:10AC60003CD00021C2F80811D2F8081104910499CF
:10AC7000D868596AD2F8182542545A6A996901323B
:10AC80005A625A6A8A42A1D1DA691968002A2ED01A
:10AC9000D8685D6A1C699A61079000220120DC6017
:10ACA000DA615A628DF8180008955B6806A8984723
:10ACB0008CE793F8280000F0FF0400288FD1C2F839
:10ACC0001C41D2F81C11029102999C68186A196AF9
:10ACD000205C01311962C2F81C0593E7C2F8081123
:10ACE000D2F8080105900598D2F81825C9E793F81D
:10ACF000292012B90A4A01205060094A4FF4017014
:10AD0000C2F80803586ADA68089000240120079204
:10AD10008DF818005A689C6106A8904756E700BF56
:10AD200000200040843200202DE9F041714F067967
:10AD30002C2505FB067582B095F82A30002B40F0D3
:10AD40009A800D4604466C4900689046FFF7C4FEA1
:10AD5000002840F08C802B68591C19D01F2B4FF015
:10AD600001028ABF65494FF0A04103F01F0302FAB8
:10AD700003F3C1F808352B681F2B86BF03F01F03B0
:10AD80005E4A4FF0A04203F5E073032142F823101E
:10AD90006B685A1C0BD01F2B86BF03F01F03574A4A
:10ADA0004FF0A04203F5E073002142F8231023681E
:10ADB000AA69C3F82425297D6B7D22680B43C2F85C
:10ADC0006C35D5E900122368C3F81425C3F80C15B7
:10ADD0002B7D012B53D02C2303FB06F3FA18C2F86A
:10ADE00004802A69FA50B8F1000F2DD022682B7F19
:10ADF000434D0021C2F81C11D2F81C210092226898
:10AE0000DDF800C0C2F84411D2F844112268019163
:10AE10000199C2F804532168090B4AB25B01002A68
:10AE2000DBB261DB02F1604202F5614282F800337D
:10AE30002368344D1B0B5AB2520903F01F03012142
:10AE400001FA03F345F822302C23246803FB067330
:10AE5000002204250121C4F8005583F82A10C3E913
:10AE6000062283F829205A6102B0BDE8F081112042
:10AE700002B0BDE8F081082002B0BDE8F081AB6807
:10AE8000591C0BD01F2B86BF03F01F031B4A4FF02A
:10AE9000A04203F5E073002142F82310EB685A1C2E
:10AEA0001BD01F2B4FF001028ABF14494FF0A04165
:10AEB00003F01F0302FA03F3C1F80835EB681F2BF8
:10AEC00088BF03F01F0303F5E0738CBF0B4A4FF0FC
:10AED000A042032142F82310EB682268A968C2F857
:10AEE0000835C2F8101576E7074A01F00F010A4449
:10AEF00013769DE7843200206DAB02000003005002
:10AF00008000020000E100E0FCEC00E0F8B53A4F00
:10AF1000047902682C2303FB047300215B68C2F8E8
:10AF2000001583B10368354AC3F808230368344D1C
:10AF30001B0B5AB25209203203F01F03012101FA00
:10AF400003F345F8223003684FF0FF3CD3F80C655B
:10AF5000D3F81455D3F80825D3F81015C3F814C541
:10AF6000C3F80CC503686645C3F808C5C3F810C527
:10AF70000CD01F2E86BF06F01F06224B4FF0A043B9
:10AF800006F5E0764FF0020C43F826C06E1C0BD09D
:10AF90001F2D86BF05F01F051A4B4FF0A04305F586
:10AFA000E075022643F825604D1C0BD01F2986BF93
:10AFB00001F01F01134B4FF0A04301F5E071022592
:10AFC00043F82150531C0BD01F2A86BF02F01F02EA
:10AFD0000C494FF0A04102F5E072022341F8223003
:10AFE0000068FFF79FFD2C2303FB0474002384F803
:10AFF0002A306360F8BD00BF843200208402020062
:10B0000000E100E000030050F0B5314E05792C233B
:10B0100003FB056385B05C69002C53D11C62996009
:10B0200083F828405A610268C2F81C41D2F81C110A
:10B03000026802910121029F91600268D3F808C062
:10B04000C2F81C41D2F81C1101910199D3F820E0FB
:10B05000196A5F681CF80EE001311962C2F81CE53C
:10B0600017B1204605B0F0BD1A6A5C6901689442C8
:10B0700003D819E093F828203ABBD1F81C21002A04
:10B08000F8D0C1F81C71D1F81C210392039AD3F8AF
:10B0900020E01A6A1CF80EE001321A62C1F81CE5C1
:10B0A0001A6AA242E9D30168D1F81C31002BFBD007
:10B0B0000123CB6000202C2303FB056500236B617B
:10B0C00005B0F0BD112005B0F0BD0F20F3E700BFC3
:10B0D000843200200379044A2C2101FB03235869A0
:10B0E000003018BF0120704784320020F0B4514D69
:10B0F00004792C2303FB045386B05F6827B10368EF
:10B100004FF40176C3F808632C2303FB04539E69B4
:10B110006EB1DE690EB3002F00F0848003684FF437
:10B1200001721120C3F8042306B0F0BC704793F8F5
:10B1300029709A61D9605E62DE61002F60D02C2296
:10B1400002FB04520168536853B14FF40173C1F814
:10B150000433002006B0F0BC70471961DA61EEE7F5
:10B16000C1F84431D1F844310393039B0368D3F809
:10B170002461D3F80871D3F8441157B9002936D1A6
:10B18000002EF4D02C2303FB04540023A3610320DE
:10B19000E0E7002EF6D161BB966996B1C3F80811BD
:10B1A000D3F8081104910499D668516AD3F8183578
:10B1B0007354536A916901335362536A9942D5D8E3
:10B1C00008E0C3F80861D3F8081105910599D3F890
:10B1D0001835536A2C2303FB0454002294F82930B9
:10B1E000A2610BB30368012110461960B2E7002E7B
:10B1F000C8D12C2303FB04540023A3610F20A9E72B
:10B200000368C3F82471D3F8242103680192019ADA
:10B21000C3F80871D3F80821036802920122029949
:10B220001A608CE7112095E70268012118465160E9
:10B2300090E700BF84320020F0B5444BD3F82421BE
:10B2400089B0002A52D00021C3F82411D3F8242158
:10B25000029202228DF81020029AD3F880043C4A10
:10B26000C3F880040790D3F83C05D3680690C2E980
:10B27000061105931168536804A89847334BD3F817
:10B280004421BAB10021324AC3F84411D3F84441F1
:10B2900090690194019C68B1D3F83C35D06806935D
:10B2A0000123C2E9061105908DF8103004A8D2E9F7
:10B2B00000139847254BD3F82021AAB10021C3F8E9
:10B2C0002011D3F82001224A00900098506958B10B
:10B2D000D3F84C05936806908DF8101051610593D2
:10B2E00004A8D2E90013984709B0F0BDD3F81011B3
:10B2F0000029C3D0C3F81021D3F8101114480391CA
:10B3000003998169D3F83C458C42B7D1C569C768B8
:10B31000D0E900168DB1D3F800C285612CF020056C
:10B32000C261C3F800520369C3600122CDE905740C
:10B330008DF8102004A8B047A0E701238561CDE96E
:10B3400005748DF8103004A8B04797E7002000403E
:10B35000B03200202DE9F04307797A4E4FEAC70852
:10B3600008EB070306EB830385B093F82030002B2E
:10B3700040F0A8800D460446734900689146FFF7E7
:10B38000ABFB002840F09A802B68591C19D01F2B6A
:10B390004FF001028ABF6D494FF0A04103F01F0337
:10B3A00002FA03F3C1F808352B681F2B86BF03F0A0
:10B3B0001F03664A4FF0A04203F5E073032142F8F1
:10B3C00023106B685A1C0BD01F2B86BF03F01F0382
:10B3D0005E4A4FF0A04203F5E073002142F82310CB
:10B3E0002368AA69C3F82425297D6A7D23680A4356
:10B3F000C3F86C25D5E900312268C2F80C35C2F8D3
:10B4000014152B7D012B61D008EB07029200B318B5
:10B41000C3F804902B69B350B9F1000F3DD02168F7
:10B420002B7F4B4D0022C1F81021D1F81011009153
:10B430002168DDF800C0C1F82021D1F82011019168
:10B440002168DDF804C0C1F82421D1F8241102914B
:10B450002168DDF808C0C1F84421D1F84411226800
:10B4600003910399C2F804532168090B4AB25B01A6
:10B47000002ADBB25FDB02F1604202F5614282F832
:10B4800000332368334D1B0B5AB2520903F01F03DC
:10B49000012101FA03F345F822304744226806EB04
:10B4A0008706002301240821C2F8001586F82040F1
:10B4B000C6E90633736105B0BDE8F083112005B01D
:10B4C000BDE8F083082005B0BDE8F083AB68591CE7
:10B4D0000BD01F2B86BF03F01F031C4A4FF0A04266
:10B4E00003F5E073002142F82310EB685A1C1BD0CF
:10B4F0001F2B4FF001028ABF14494FF0A04103F007
:10B500001F0302FA03F3C1F80835EB681F2B88BF4D
:10B5100003F01F0303F5E0738CBF0C4A4FF0A04209
:10B52000032142F82310EB682268A968C2F80835A5
:10B53000C2F8101568E7084A01F00F010A441376B3
:10B540009FE700BFB032002039B202000003005074
:10B550001003020000E100E0FCEC00E0F8B5077920
:10B560003A4C0268FE00F31904EB830300215B6888
:10B57000C2F8001583B10368354AC3F8082303688D
:10B58000344D1B0B5AB25209203203F01F03012124
:10B5900001FA03F345F8223003684FF0FF3ED3F879
:10B5A0000CC5D3F81455D3F80825D3F81015C3F8F3
:10B5B0000CE5C3F814E50368F445C3F808E5C3F8DF
:10B5C00010E50DD0BCF11F0F86BF0CF01F0C224BF5
:10B5D0004FF0A0430CF5E07C4FF0020E43F82CE056
:10B5E0006B1C0CD01F2D86BF05F01F051A4B4FF0AA
:10B5F000A04305F5E0754FF0020C43F825C04D1C43
:10B600000BD01F2986BF01F01F01134B4FF0A04341
:10B6100001F5E071022543F82150531C0BD01F2A7D
:10B6200086BF02F01F020C494FF0A04102F5E07204
:10B63000022341F822303E4404EB86040068FFF701
:10B6400071FA002384F820306360F8BDB032002026
:10B650001003020000E100E00003005001F060432D
:10B66000B3F1005F2CD1F0B40579244EEF007C19C2
:10B6700006EB840482B0636923BB6261A160026847
:10B68000C2F82031D2F820C10268CDF804C0DDF83C
:10B6900004C0C2F85831D2F8582100920268DDF88F
:10B6A00000C0D4F814C0C2F84415C2F848C50268F6
:10B6B0000121916062684AB1184602B0F0BC70473F
:10B6C00010207047112002B0F0BC7047036800E002
:10B6D0008AB9D3F82011D3F858210029F8D0002ACC
:10B6E00014BF0F2000207B1906EB830300225A6150
:10B6F00002B0F0BC70470F20F5E700BFB032002069
:10B700000379054A03EBC30302EB83035869003056
:10B7100018BF0120704700BFB032002001F0604325
:10B72000B3F1005F7ED1F0B40579464CEB005E19B1
:10B7300004EB860682B0766826B107684FF4047C75
:10B74000C7F808C32B4404EB83039D69002D42D145
:10B750009A61DD61D9600368C3F81051D3F81061B4
:10B7600003680196019EC3F84451D3F8445103681D
:10B770000095009DC3F83415C3F8382503680122ED
:10B780001A6005790368EE00721904EB82025268B0
:10B790005AB14FF40472C3F80423002002B0F0BC85
:10B7A0007047002942D1002846D1D3F81021D3F8A0
:10B7B0004411D3F82401002AF3D0354400284FF077
:10B7C000000304EB850414BF032018469942A361CB
:10B7D00018BF0F20E2E7DD693DB12EB303684FF4D7
:10B7E0000472C3F804231120D8E71961DA610368F1
:10B7F000C3F81051D3F8106103680196019EC3F895
:10B800004451D3F8445103680095009DC3F83415A2
:10B81000C3F838250268D2F8003243F02003C2F89A
:10B820000032AEE7102070471120B7E7354404EB33
:10B8300085040F20A261B1E7354404EB85040320A1
:10B84000A161ABE7B0320020032811D8012A0BD048
:10B85000012919D00ED302290AD10E4B00EB40006A
:10B86000034400205A70704701290AD00022EFE7F4
:10B8700007207047074B00EB4000034400209A70FC
:10B88000704700F10E02D2B200EB400301490020E4
:10B89000CA547047D432002010B50388102B07D04B
:10B8A000112B04D1254B18680138186030B110BD38
:10B8B000224C216881B10131216010BD0122022199
:10B8C000FFF7C2FF38B3072825D01D4B1B68002B9C
:10B8D000EDD0BDE81040184701220846FFF7B4FF3D
:10B8E00038B1072805D0164B1B6803B1984721686B
:10B8F000E1E7072202210120FFF7A6FF08B1072890
:10B90000F1D1042202210020FFF79EFF0028EED093
:10B910000728E8D1EBE7072202210120FFF794FF77
:10B9200008B10728D1D1002108460A22FFF78CFF71
:10B930000028BCD00728C8D110BD00BFE4320020C9
:10B94000E03200206DDF704779DF70477DDF7047A0
:10B9500064DF70472DE9F04F83B004880C9EBDF87A
:10B960003490B6F800A0002C39D098460023174632
:10B970008B4605461C4603E02A880134A24224DD9A
:10B980006A6852F82400019000220DF1030101A819
:10B99000FFF7DEFF20BB9DF80320BA42ECD13288CE
:10B9A000B91803B389452BDB42440DF1030101A80B
:10B9B0000123FFF7CDFF98B931889DF803200A4491
:10B9C00032802A880134A242DADC43B13388013B59
:10B9D000A3EB0A039BB2FF2B12D808F80A30002011
:10B9E00003B0BDE8F08F02310132894592B207DB26
:10B9F000328008F802B03288013292B23280D3E746
:10BA00000C2003B0BDE8F08F2DE9F0470023178824
:10BA1000138090F82D3086B0144605460E46002B54
:10BA200040F0FB80AA78002A40F0FD80EA78A2B1BD
:10BA3000D91CB94200F2F3800221F154238801336A
:10BA40009BB201212380F15423880B449BB22380B5
:10BA5000F25423880B449BB223806A68AAB1D91C94
:10BA6000B94200F2DC80022192F90020F1542388CF
:10BA700001339BB20A212380F154238801339BB206
:10BA80002380F2542388013323802B89002B40F03C
:10BA90001B812B8A002B40F02F812B8B002B40F039
:10BAA00043812B6A002B44D02288911DB94200F2B9
:10BAB000B6801988052940F203816FF4486801EBCC
:10BAC000080080B24FF27D3C604540F2F980588812
:10BAD000052840F2F5806FF4486E86441FFA8EFE0A
