:020000022000DC
:1060000000000120B5620200DD620200DF620200D2
:10601000E1620200E3620200E562020000000000AB
:10602000000000000000000000000000E762020025
:10603000E962020000000000EB620200ED62020073
:106040008D990200E12603000D9A020095C402001A
:1060500011C30200EF62020039940200EF620200F5
:10606000EF620200EF620200EF620200EF620200E4
:10607000EF62020015C80200EF620200EF62020048
:10608000993A030081670200B9380300FD38030024
:1060900021680200EF6202003DC10200992A03005C
:1060A000EF620200EF62020001340300EF620200BF
:1060B000EF620200EF62020000000000000000003A
:1060C000EF620200EF620200EF620200EF62020084
:1060D000EF620200EF620200EF62020000000000C7
:1060E00000000000000000000000000000000000B0
:1060F00000000000000000000000000000000000A0
:10610000000000000000000000000000000000008F
:10611000000000000000000000000000000000007F
:10612000000000000000000000000000000000006F
:10613000000000000000000000000000000000005F
:10614000000000000000000000000000000000004F
:10615000000000000000000000000000000000003F
:10616000000000000000000000000000000000002F
:10617000000000000000000000000000000000001F
:10618000000000000000000000000000000000000F
:1061900000000000000000000000000000000000FF
:1061A00000000000000000000000000000000000EF
:1061B00000000000000000000000000000000000DF
:1061C00000000000000000000000000000000000CF
:1061D00000000000000000000000000000000000BF
:1061E00000000000000000000000000000000000AF
:1061F000000000000000000000000000000000009F
:1062000010B5054C237833B9044B13B10448AFF3F0
:1062100000800123237010BD482D002000000000E5
:1062200068A1030008B5034B1BB103490348AFF352
:10623000008008BD000000004C2D002068A1030074
:10624000154B002B08BF134B9D46A3F5803A002148
:106250008B460F461348144A121A10F0B6FD0F4B26
:10626000002B00D098470E4B002B00D09847002001
:10627000002104000D000D48002802D00C48AFF3A7
:10628000008010F04BFD200029000BF0ABFA10F05D
:1062900031FD00BF000008000000012000000000E8
:1062A00000000000482D0020546F00200000000076
:1062B000000000000649074A074B9B1A03DD043B18
:1062C000C858D050FBDC00F013F8FFF7B9FF00000E
:1062D00028A20300982A0020482D0020FEE7FEE7B0
:1062E000FEE7FEE7FEE7FEE7FEE7FEE7FEE7FEE786
:1062F00030B4904B1B78062B20D08F4B1B68062B9D
:1063000000F085808D4AD2F8883043F47003C2F8DB
:106310008830BFF34F8FBFF36F8F4FF01023D3F848
:106320000022002AC0F28681D3F80432002BC0F28A
:106330008181834B834A1A6030BC7047824B1B6853
:106340001D07DAD1814B1B6803F0F002302A00F000
:106350009E8003F0E003402B00F099807B4B1B688C
:1063600003F0F003302B00F0B980784B1B6803F08A
:10637000F002302A56D003F0E003402B52D0734B8A
:106380001B6803F0F003302B00F0B6806F4B1B68E6
:1063900003F0F002302A66D003F0E003402B62D015
:1063A0006A4B1B6803F0F003302B00F0B580674B9D
:1063B0001B6803F0F003302B79D0644B1B6803F0AB
:1063C000F003502B00F0E480604B1B6803F0F002F8
:1063D000302A37D003F0E003402B33D05B4B1B68EF
:1063E00003F0F002302A03D003F0E003402B84D105
:1063F0004FF08043D3F80024D20744BF6FF001026E
:10640000C3F800244C4B1B68062B7FF47BAF504B2A
:106410001B68062B7FF476AF4E4A136843F4806303
:1064200013606FE74C4B434A1B6812784B49C3F328
:106430004233062A0B6048D1434B1B6819077FF48F
:106440005CAF9CE7464A3B4B12681B78454902F01B
:106450004F02062B0A607FF450AF3B4B1B681907B5
:106460007FF44BAFBAE74FF080430022C3F80C2112
:10647000C3F81021C3F838252E4B1B78062B7FF468
:106480003CAF314B1B681B077FF437AF88E7364BB7
:10649000284A1B6812783549C3F30423062A0B6087
:1064A000EAD1294B1B681C077FF427AF56E7304C15
:1064B000204A304912783048304B052525600125A7
:1064C0000D6000243F2104601960062A7FF415AF97
:1064D0001D4B1B681C077FF410AF6EE7154B284A55
:1064E0001B7828491160062B7FF407AF164B1B68F9
:1064F00018077FF402AF38E723490E4BCA681B78B0
:1065000022F08072062BCA607FF4F7AE0E4B1B6838
:106510001A077FF4F2AE39E7064B1C4A1B780321B9
:10652000062B11607FF4E9AE074B1B681D077FF453
:10653000E4AE3CE7E00F00F03001001000ED00E0B9
:10654000982A00200090D003E40F00F0E80F00F03C
:10655000340100103C170040440200103C0500408C
:1065600058020010E40E00402403001040350140A2
:1065700010560040885600401856004014560040FF
:1065800074C007400DF0ADBAF0ED00E0A00500408A
:106590004FF08053404AD3F80414C2F82015D3F8C2
:1065A0000814C2F82415D3F80C14C2F82815D3F82F
:1065B0001014C2F82C15D3F81414C2F83015D3F8FF
:1065C0001814C2F83415D3F81C14C2F84015D3F8C7
:1065D0002014C2F84415D3F82414C2F84815D3F88F
:1065E0002814C2F84C15D3F82C14C2F85015D3F85F
:1065F0003014C2F85415D3F83414C2F86015D3F827
:106600003814C2F86415D3F83C14C2F86815D3F8EE
:1066100040142248C2F86C15D3F844140378C2F829
:106620007015062B7FF469AE1D4B1B6818077FF4AD
:1066300064AEC9E61B4B0122C3F80425D3F800243D
:10664000002AFBD04FF0102315221649C3F8002270
:10665000D1F80034002BFBD04FF010221521114B44
:10666000C2F80412D3F80024002AFBD000220D49FE
:10667000C3F80425D1F80034002BFBD0BFF34F8FB3
:1066800009490A4BCA6802F4E0621343CB60BFF3C6
:106690004F8F00BFFDE700BF00C00040E00F00F0DB
:1066A000E40F00F000E0014000ED00E00400FA0516
:1066B00000B585B000230390194601AA44F20100F9
:1066C000CDE9013300F004F805B05DF804FB00BF2C
:1066D00072B6094B1B68DB0700D500BEBFF34F8FB6
:1066E0000649074BCA6802F4E0621343CB60BFF36C
:1066F0004F8F00BFFDE700BFF0ED00E000ED00E0D0
:106700000400FA0559B142B1531E1A4005D1826006
:1067100001608380C26010467047092070470E20D8
:10672000704700BF10B403468468C0689A88001B95
:1067300082420AD3D8681C6802400020A154DA685B
:106740000132DA605DF8044B704704205DF8044BB9
:10675000704700BF03468068DA6890420DD010B4DD
:1067600098689A881C6802400020A25C0A709A68A7
:1067700001329A605DF8044B70470520704700BFF6
:10678000F8B5204A204B0024C2F84041C2F84441E9
:10679000C2F84841C2F84C41C2F80041C2F8044175
:1067A0001B6833B31949D2F804550A68AD1A1A6840
:1067B00025F07F45AA4227460DD8197CDE69AD1A1F
:1067C000144419B11F74D3E9052090471EB1334614
:1067D0001A68AA42F1D90E490E4A0B7812789A42E9
:1067E00008D00D490D4A41F823404FF48013C2F8F8
:1067F0000031F8BD531CDBB2022B08BF00230B7025
:10680000EFE700BF00100140842E0020802E002002
:106810007D2E00207C2E0020742E002000E100E060
:106820002DE9F04F8C4A8D4913780978DFF85082B2
:10683000994285B0D8F800A000F07B810133DBB22B
:10684000022B08BF002386481370864A076852F857
:1068500023107B1823F07F43002403605346264611
:106860002046A446ABB11A688A4200F26581DC6812
:10687000C3F800C0891A1044DA6934B13D1825F014
:106880007F45C3E90154DE611E4613460124002BF7
:10689000E9D1002C40F07C8101230093724B734FAF
:1068A000DFF8E09143F00103019355464FF0000BF0
:1068B00046B3D6E901C13446F669694B6C481A689B
:1068C000ACEB020323F07F43834248D80B442360A0
:1068D00000220121C4E90122E2612174002D5DD072
:1068E0002A689A424DD2284603E00A689A424FD25B
:1068F0000846C1699B1A0029F7D12360E161C46190
:10690000002ED6D178783978884264D00B4603EBD4
:1069100043034C1CBA7807EBC303E1B28A421A79ED
:10692000397004BF00213970022A9C6844D0032AC0
:1069300038D0012AE8D1227C002AE5D1D3F80CC056
:10694000C4F804C01969A1605869E06099F80000B2
:106950009B69A3610028B0D062609446ADE7A2EBCA
:106960000C0222F07F428A4202D28B1A2360AFE7E8
:1069700000230122C4E90033A360E36122746DB1F6
:106980002A68C8F80040D31A2B60E56125468FE7D6
:10699000D21A0A602360E161C461B1E7C8F800401F
:1069A000254685E7002DAFD000232B74ED69002D1F
:1069B000FBD1C8F80050A5E74DB1AC422B4603D13E
:1069C000E4E094422FD01346DA69002AF9D100237B
:1069D000237488429AD1BBF1000F01D1554553D0A1
:1069E000002D56D1234E244A1F4C4FF480334FF4D0
:1069F00000310127C2F880103C43C6F848334FF4F9
:106A00003C60C6F808337760A047154BB7604FF479
:106A10003C601D60A047194B1D70002389F80030B1
:106A200005B0BDE8F08FA34200F09180E0692168D5
:106A3000D861002800F086802A4603680B44036072
:106A4000AA424FF000033978787823741CBF1546AA
:106A50004FF0010BBDE700BF7C2E00207D2E0020F3
:106A6000802E0020742E002080910300642D0020D1
:106A7000FEFF7F000010014000E100E0712E0020C9
:106A8000842E0020702E0020009B002BC5D0002DEE
:106A9000A8D0434B434A1C68D2F80465424FD5F84E
:106AA00000A03978331B23F07F43DD1CB9B93F497F
:106AB0003F4B4FF48030C2F844034FF00108C2F856
:106AC00004034FF40030C1F8800143F00103086073
:106AD000C2F800804FF43C60984787F80080AA45D0
:106AE0002CBF04EB0A0363192E4923F07F43C1F83E
:106AF0004035D1F80425921B9B1B22F07F4223F0E6
:106B00007F4303329A4288D9294BD1F80425C1F832
:106B1000402543F001034FF43C609847234B4FF46A
:106B20000032C3F80021002389F8003005B0BDE829
:106B3000F08F00260096B1E674BB521A1A6001234A
:106B40000093ABE6002339787878237441E719463F
:106B5000EA69C8F8002092B9CDE90231114BDFF89B
:106B600040C001209860019B89F80000CCF800200B
:106B70004FF43C609847DDE90231D8F80020C8693D
:106B80000968D86100287FF458AF59E72946DFE744
:106B9000C8F800309A467FE6C8F800309A46CCE73D
:106BA000802E002000100140712E002000E100E046
:106BB000809103002DE9F8431F4D204E204FDFF850
:106BC00098804FF480334FF400324FF001090024D5
:106BD000C6F8802047EA0907C5F848334FF43C60FF
:106BE000C5F80833C5F80490B847C5F808904FF4C5
:106BF0003C60C8F80040B847124A134B13491C6068
:106C00001470134B134A0C700B2114701C80997074
:106C10004FF48012C023C6F8802186F81433326006
:106C2000C5F8084586F81133D5F80435C8F80030A2
:106C30002046BDE8F88300BF0010014000E100E0FD
:106C400080910300712E0020842E00207C2E0020D5
:106C5000642D00207D2E0020802E0020074B9B7885
:106C60004BB132B128B10368187C20B959745A610C
:106C70007047072070470820704700BF642D002030
:106C80002DE9F047264CA37882B0002B3CD0002899
:106C90003AD004293CD94369002B35D0814602A85B
:106CA00099F811300026012B00F8016D0CBF8846C1
:106CB000B04617468A4600F0F3F96378A178227847
:106CC0009DF807005D1CEDB2A94208BF3546AA42F7
:106CD00022D003EB430304EBC3030121114AC3F8A1
:106CE00008901971D2F804256570C3E9032AC3E935
:106CF000058700F0FBF90C4B4FF480123046C3F8C7
:106D0000002102B0BDE8F087082002B0BDE8F0879E
:106D1000072002B0BDE8F08700F0E8F90420F0E7B2
:106D2000642D00200010014000E100E0F0B51A4C95
:106D3000A37883B043B338B343692BB3064602A8A4
:106D4000002500F8015D357400F0AAF96278A77893
:106D500021789DF80700531CDBB29F4208BF2B46E9
:106D6000994214D002EB420204EBC2020221966067
:106D70001171637000F0BAF9084B4FF48012284685
:106D8000C3F8002103B0F0BD082003B0F0BD00F04F
:106D9000ADF90420F9E700BF642D002000E100E018
:106DA00030B50478012C83B027D017D3022C13D12F
:106DB000384B394D1A78C168AA5C01918DF80040B2
:106DC000002A33D103F10C000122344903F0D6F834
:106DD000334B68461B68984703B030BD3149324891
:106DE000FFF7B8FC002844D002A8032300F8083DB0
:106DF0002B4B1B68984703B030BD43682B4D197867
:106E00002846FFF78FFC40B3254B01908DF80040DA
:106E10001B6868469847A968EB68AA885B1A9A427B
:106E20000AD2234B01221A7003B030BD181D012273
:106E30001A4903F07BFBCBE71648174A0378D35C6B
:106E40002BB9012215490C3003F098F8C4E7012250
:106E50001249043003F06AFBBEE7AA68EB689A4265
:106E6000D9D002AB0E4A03F8080D126818469047B5
:106E7000D1E70848084A0378D35C2BB901220949B5
:106E80000C3003F009F8A7E701220649043003F0AB
:106E9000EDFAA1E79C2A0020F06E0020B02E002021
:106EA000882E0020B42E0020A02E00208C2E002042
:106EB0009C2E00202DE9F045324C89B0226000293B
:106EC00055D00C4680468A882F4809689A46FFF7B5
:106ED00019FC10B109B0BDE8F085A289A1682B4862
:106EE000FFF710FC0028F5D1294D98F810C0D8F80C
:106EF0001470284E0FCD6C460FC495E80F0098F81B
:106F000011501CF1000C18BF4FF0010C002D84E84B
:106F10000F00D8F80850D8F80040D8F80430069789
:106F200014BF0E220022D8F80C708DF81520694687
:106F30003046194A8DF81CA08DF814C0CDE90275B1
:106F4000CDE9003402F0D6F90028C3D1D8F80030DA
:106F5000124A01331070BDD0114A3378D35C53B953
:106F600006F10C0001220F4903F008F8B2E70720F0
:106F700009B0BDE8F085301D01220A4903F0D6FAB8
:106F8000A8E700BF882E00208C2E0020A02E002015
:106F9000889103009C2A0020A16D02009C2E0020F5
:106FA000F06E0020B02E002070B5114C0146114843
:106FB0002678FFF7CFFB05460EB9284670BD0E4870
:106FC0000E4A0378D35C0022227053B90C300122A0
:106FD0000B4902F0D3FF0028EFD0FFF769FB2846EA
:106FE00070BD01220649043003F0A0FAF3E700BFA8
:106FF0009C2E00208C2E00209C2A0020F06E002069
:10700000B02E002070B501461548FFF78BFB0446F3
:1070100008B1204670BD134D134E2B78F35CABB90D
:1070200005F10C0002F09EFF0028F2D10F490C4838
:10703000FFF790FB0028ECD12B780C49F35C012280
:1070400043B90B48BDE8704002F026BF281D03F08D
:107050005FFAE9E70748BDE8704003F007BA00BFF0
:10706000A02E00209C2A0020F06E0020B42E0020CC
:10707000A82A0020A02A002008B50748074A03785C
:10708000D35C23B90C3002F0A1FE002008BD04300F
:1070900003F084F9002008BD9C2A0020F06E002037
:1070A00070B4EFF3108472B60D4B9A68AAB90D490B
:1070B0000D4E01259D60D1F8805035401D60C1F80E
:1070C0008060D1F884505D604FF0FF33C1F88430A8
:1070D000027004B962B670BC704701230370F8E710
:1070E000E46E002000E100E0FC06FFBD094B9A6859
:1070F0007AB170B910B4EFF3108172B6064A1C6809
:1071000014605C685460986001B962B65DF8044B25
:1071100070477047E46E002000E100E099B110B4C0
:10712000B2FBF3F403FB1424A4B244B9C0E9001485
:1071300084608281C38120465DF8044B704709203A
:107140005DF8044B70470E20704700BF82B050E8D6
:10715000022FC188B2EB324F4FF0000317BF92B23B
:1071600041EA014142EA014104E04268B2EB324F98
:1071700008BF012340E80212002AE8D18DF8073049
:107180009DF80730002B0CBF1120002002B0704783
:1071900030B482B050E8013F9DB2C489254484894F
:1071A000A54228BF2D1B0489A54202BFBFF32F8F24
:1071B000002207E0C5EA030540E80154002CE9D1AC
:1071C0004FF001028DF803200193019B9DF80320ED
:1071D0000B602AB10B880068184402B030BC7047BD
:1071E00002F0FF031846F8E70A884B889A4201D05C
:1071F0000020704750E8012FC2EA024240E8012314
:10720000002BF7D10120704730B482B050E8023F24
:107210001FFAA3F5C488A54202BFBFF32F8F002237
:107220000DE0C48925448489A54228BF2D1BC3EAEB
:10723000054540E80254002CE8D14FF001028DF8DA
:1072400003200193019B9DF803200B602AB14B881A
:107250000068184402B030BC704702F0FF031846C3
:10726000F8E700BF0A884B889A4201D00020704797
:1072700050E8022FC2EA224240E80223002BF7D155
:107280000120704701F01F024B09012100EB830030
:10729000914000F07FB800BF10B5012301F01F043A
:1072A000490900EB810003FA04F100F067F8E040BF
:1072B00000F0010010BD00BF01F01F0201234909C9
:1072C000934000EB8100D94300F070B84B0901F006
:1072D0001F0150F82300C84000F00100704700BFB4
:1072E0002DE9F84F01F1FF394FEA591300F1040974
:1072F0000F46064609EB8309044600254FF00108B6
:1073000023686FEA030B9BFAABFBBBFA8BFBBBF169
:10731000200F20D0AB445F450CD81CE02368DB4332
:1073200093FAA3F3B3FA83F3202B05EB030B12D0EC
:107330005F4510D90BF01F0A4FEA5B1008FA0AF1FB
:1073400006EB800000F01AF820FA0AF0C307E5D433
:107350005846BDE8F88F04344C4505F12005CFD1DF
:10736000BB465846BDE8F88F50E8002F0B4640E872
:10737000003C9CF0000FF7D11046704750E8002FFA
:1073800042EA010340E8003C9CF0000FF6D11046B1
:10739000704700BF50E8003F43EA010240E8002C7C
:1073A0009CF0000FF6D11046704700BF50E8003F38
:1073B00003EA010240E8002C9CF0000FF6D11046D1
:1073C000704700BF50E8002F02EB010340E8003C8B
:1073D0009CF0000FF6D11046704700BF50E8003F08
:1073E00003EB010240E8002C9CF0000FF6D11046A0
:1073F000704700BF50E8003FA3EB010240E8002CBB
:107400009CF0000FF6D11046704700BF012350E8F2
:1074100000CF4CEA030240E8002191F0000FF6D1C2
:1074200060467047F0B443681BB1384AD468A34241
:1074300046D20023364F0B807A684FF0010C02F5DC
:1074400080544FF6FF76083294420ED8BCF1020FFA
:10745000A1F800C007F1140754D07A6802F58054EF
:10746000083294424FF0020CF0D913680133EDD08A
:107470005388033302EB83039C42E7D39588B542DC
:107480000AD0158845B1956803689D4211D053888C
:10749000033302EB8302D7E79C42D7D91A68013243
:1074A0001A46D3D05D88033503EB85039C42E5D2B1
:1074B000CCE7184B42601B8903810120F0BC704768
:1074C00012699342B5D813F00305B2D1114A048969
:1074D00012899442ADD104689A689442A9D10C48AB
:1074E0004268934203D902F58052934207D38269DE
:1074F000934207D902F58052934203D201250D80B1
:107500000120DBE70020F0BC704700BF342D0020D5
:10751000F82E0020DC2E0020F0B5334C334DB4F8AB
:1075200002C062684FEA8C0606EB0C0305EB83038E
:1075300083B0596801F58050002A52D05388033334
:1075400002EB8302904213D8664405EB8605EB6894
:10755000002B3DD0264B2748196802229A8005252A
:1075600000230122257003B0BDE8F04001F002BA0B
:1075700013680133E8D05388033302EB830383425B
:10758000E2D84FF6FF7E9788774514D0178897B1D9
:1075900062605388164D1748AE882968033300256A
:1075A0009BB200959B0001EB86010325257001F03D
:1075B000ADF903B0F0BD9842C6D91A6801321A4637
:1075C000C2D05F88033703EB87039842DBD2BBE767
:1075D000084804250122257003B0BDE8F04001F001
:1075E000C9B901F10802ADE7DC2E0020F82E002019
:1075F000C02F0020342D00202DE9F04FAC4E89B073
:1076000004464FF6FF773568002D00F0D9802A78C0
:10761000531E052B67D8DFE803F05931311D1D03D8
:10762000002C40F0C380DFF8B0C29CF80C209CF81E
:107630000030002A00F05281013B8CF80C40062BF0
:1076400051D8DFE813F0E703F8020302D801500035
:10765000FB02C802002C40F0A9802B79012B00F01E
:107660004A81C0F0DE800DF10C08022B0394C8E9BA
:107670000244C8F810403ED120463DE0B5F81490D1
:10768000AB7D002C00F0A380022BEA8840F2C4807E
:107690004FEA8904DFF8388204EB090108EB810125
:1076A000D31C0A8913440B81EA884C4408EB8404F8
:1076B0000DF10C086389033B9B1A00226381C8F813
:1076C00008200392C8E90322012015E0002C40F0B5
:1076D00097802B79032B00F2DF80DFE813F0800125
:1076E0003D015501600100230DF10C08C8E9033389
:1076F000C8F8083003930F2004902B78023B042B2A
:107700000AD8DFE803F0472F2303430004238DF852
:107710000C30EB88ADF81830664C04F1100554F8C5
:10772000043B404603B19847A542F8D162496348FB
:1077300000243460FFF796FD01216148FFF75AFEEF
:1077400000287FF460AF09B0BDE8F08F03238DF807
:107750000C30EB88ADF818302B89ADF81A30EB6897
:107760000593D9E702238DF80C302B89ADF818303A
:10777000AB88ADF81A30EB680593AB7DA3F1060337
:10778000B3FA83F35B098DF81C30C5E705238DF848
:107790000C30C1E701238DF80C302B89ADF818307F
:1077A000AB88ADF81A30EB680593B5E70DF10C081E
:1077B0000023C8F808300393C8E9033301209BE78E
:1077C0003D493E48FFF720FD054630601FE74FEA80
:1077D0008904DFF8FC8004EB090108EB8101B1F8B2
:1077E00008A0496801EB8A0A062B00F2B682DFE89E
:1077F00013F0CC019301A501B80141016C01860190
:107800000DF10C082F4A002353600393C8E902339B
:10781000C8F8103001206FE7DFF8B4804FEA890420
:1078200043E702232B71CDE904440DF10C08EB680A
:10783000039340460DF10A01FFF7F4FD002800F024
:10784000C1810499204A8B88EB800B882B811F48CB
:1078500000940423BDF80A4001F058F8002840F0D5
:10786000DE821B4B04EB840403EB840401232374AA
:1078700069E701239A001A4408EB82030020596843
:107880000090082308F82200124A104801F03EF840
:1078900000283FF458AF35680A4A0DF10C08002360
:1078A00053600393C8E90233C8F810300E2023E771
:1078B000F42E0020C42E0020EC2E0020AC2F00203F
:1078C000BC2F0020D42E0020A8910300342D0020CE
:1078D000F82E0020AC910300DC2E0020072B00F2D4
:1078E0008382DFE813F0FA01810281029D01E60143
:1078F00078017801C001BF4B1B78002B00F0538149
:10790000DFF8F4E2BEF80490B9F1010F15D8DFF802
:107910000C8309EB890208EB8202043212F8043C62
:10792000002B00F0088209F1010399B20129994660
:10793000AEF8043002F11402F0D90DF10C0808225F
:107940000021AD480FF041FA0020C8F8080003906C
:10795000C8E903003568CFE6DFF8C08298F8003048
:10796000022B00F0688298F81430022B81D0A14BD2
:107970000DF10C08002001221A7003905860C8E92C
:107980000200C8F81000B7E69C4A9D481168002321
:1079900002242B719480012200F0ECFF78E7974CD1
:1079A000984A21689648DFF874824FF0000985F8FC
:1079B00004900823CDF8009000F0A8FF924B2568B2
:1079C0005B88A18803EB830308EB830208F823900C
:1079D00053682360022355601181A38058E7874BC9
:1079E0008A4A1968864801232B71002300930823D3
:1079F00000F08CFF4CE7BCF80230DFF8208203EB8C
:107A0000830308EB8308D8F80C30002B00F0DC81EE
:107A10007A4B7B48196802229A8005228CF8002054
:107A20000023012200F0A6FF00283FF48CAE0DF1E8
:107A30000C08002341F61D523568C8F8083003933E
:107A4000C8E90333904208BF184655E6DCF8042025
:107A50006A48538884880168694801EB84010333CC
:107A6000002400949BB203249B008CF8004000F09B
:107A70004DFFD9E7664BAA6966491A604FF0000BC3
:107A80001846C3F804B0FFF7CDFC002800F0CA8107
:107A90000223AB7504235146CDF800B0EA185848CC
:107AA00000F034FF00283FF44EAEAB7DEA88022B95
:107AB0004FF00E0026D84C4408EB8408B8F80A3082
:107AC000033B9B1AA8F80A30B1E7524B504AB3F86F
:107AD00000A051684A48504A00234FF0060C85F830
:107AE00016C00093042300F011FF0028DDD10AEB3B
:107AF0008A0A08EB8A08012388F8103023E6EA880E
:107B000041F61D5004EB090108EB8101D31C0A89E1
:107B100013440B81EA88CEE7032A0CBF0523062312
:107B20000022AB750AF104010092042305F108025A
:107B3000334800F0EBFE0028B7D104E62B6930484B
:107B4000002B14BF032301230022AB750AF10801A7
:107B50000092042305F10C0200F0D8FE0028A4D105
:107B6000F1E5EB882A6926484FF0010C85F816C02C
:107B70004FF0000C0AF10C019B00CDF800C000F0A2
:107B8000C5FE00283FF4DFAD8FE702230022AB756E
:107B9000042300925146EA18194800F0B7FE002865
:107BA0003FF4D1AD81E70DF10C08082221461248BF
:107BB0000FF00BF90394C8E90244C8F81040356887
:107BC000022099E50A200023C8E90033C8E90233FE
:107BD000C8F8103090E5094B0C4A19680848002392
:107BE0000093CCF8043007238CF80030082300F011
:107BF0008DFE19E7D42E0020D02F0020C02F0020AA
:107C0000342D0020AC910300DC2E0020B491030041
:107C1000B82E0020CC2F0020A8910300F82E0020C1
:107C2000884ADCF804109388498803330B44022106
:107C300093808CF80010FFF76FFCF5E6BCF802208B
:107C4000DFF810829300134408EB8308062000231A
:107C5000D8F804107C4A00938CF8000008237B4875
:107C600000F054FEE0E601238CF800309CF80A3066
:107C70004BB1DFF8E081D8F80C3000228CF80A20F4
:107C8000002B00F0AB809CF80B30002B43D0DFF8CA
:107C9000C481D8F8203000228CF80B20002B3AD178
:107CA00098F82430BBB30123ACF80230FFF734FC62
:107CB000BAE6BCF80220DFF89C81624C9300991868
:107CC00008EB810120684D68B4F804E048600220A8
:107CD0002560A1F808E0A080B5E7DFF87881BCF85E
:107CE000081098F8142098F80030B2FA82F252097D
:107CF0000131B3FA83F35B098CF80B20ACF8081060
:107D0000002201218CF80A30ACF802208CF80C20FB
:107D10008CF80010ACE70DF10C080020C8F8080042
:107D20008CF80000ACF80200CCF804000390C8E91D
:107D300003003568E0E41368DEF8001003F5805CAA
:107D400003F1080A002968D04B88033301EB830153
:107D50008C4505D8CEF80040E5E5EA880F20D1E64D
:107D60000B680133F6D04B88033301EB83039C454A
:107D7000F0D38888B8421AD0B1F800B0BBF1000F38
:107D800015D0EB88CEF800108342DBD1002300939E
:107D90002F4A2E48042300F0B9FD00284DD109EBED
:107DA000890908EB8908012388F81030CBE49C4549
:107DB000D0D9196801311946CCD05888033003EB6B
:107DC00080039C45D5D2C5E704228CF80020D8F862
:107DD00004101E48012200F0CDFD25E698F8102081
:107DE000002A3FF450AF5FE7013B062B3FF67BAC28
:107DF00001A252F823F000BF157E0200377C02007A
:107E00004D7A0200F7790200E77602003D7C02001D
:107E1000D77B02009CF80A302AE7514698E735687C
:107E20000E20D0E60DF10C080390C8E90200C8F856
:107E300010000A2060E400231CE535680E200DF1D7
:107E40000C08C0E6C02F0020AC910300342D0020A8
:107E5000A8910300F82E00204068FFF7CDBB00BFBB
:107E600038B5084B1A68042A0AD01D68064C024629
:107E70000121184644F82520FFF7B0FA002038BD4C
:107E80000C2038BDC82F0020C42E00202DE9F04F53
:107E9000AB4C8BB022780023CDE90533CDE9073315
:107EA000099372B1A74C04F1100554F8043B05A8DE
:107EB00003B19847A542F8D1002528460BB0BDE88C
:107EC000F08F201D02F0FF06FFF7A0FA07460028FA
:107ED000F2D140F6F8731B685D1C00F0FA804FF099
:107EE000805211695269DFF884829749C8F81030CE
:107EF0004046A3F540530022C8F80C3000F0FEFCC9
:107F000005460028D9D11C238C2290499048DFF8DF
:107F100060A2FFF703F9D8F80C90DFF858820296B8
:107F200009F5405348464FF0030B2A46994600286E
:107F300000F09D80036887498B4240F09880436839
:107F400085498B4200F0188101318B4240F08F80CF
:107F5000029B63B102EB820C08EB8C01022601321A
:107F6000DAF8003008F82C6092B24B600E8181681C
:107F7000CAF800004FF0020C0131AAF804C000F565
:107F8000805300F108062DD04189033106EB8100B2
:107F90008342C0F0B58060464FF6FF7E0192B6F88E
:107FA00004C0F4450FD0B6F800C0BCF1000F0AD0F1
:107FB0006A4AD6F808C01268944504D9674AC2F8DC
:107FC00000C071880331084480B2AAF804007188A7
:107FD000033106EB8106B34200F286800228019A43
:107FE00040F0318104210F43994518469FD1BBF1E0
:107FF000010F40F28B80FFB2022F00F08780062F26
:1080000000F08E80002F00F0818004A95048FFF717
:10801000BFF81C22044600210EF0D7FE002C00F011
:1080200010810123013F23700A2F09D8DFE807F0F0
:10803000160816081C081C081906190002232371CB
:1080400004A94348FFF7D0F801214548FFF7BAF9E2
:1080500000287FF431AFFFF7CFFA2EE7002323711A
:10806000EEE703232371EBE701232371E8E700F533
:108070008053014601E08B4214D00E68013601F1B5
:108080000401F8D002EB820108EB81060BF1FF3B03
:1080900001324FF0030C1FFA8BFB92B208F821C09B
:1080A0007060A1E7DAF8001091B32E4E02EB820166
:1080B00008EB810C7280022602F1010E08F82160A3
:1080C0001FFA8EF2CCF80400ACF8086047F0010704
:1080D0008AE7254B4FF080521B6811695269581C82
:1080E00008BF02FB01F3FEE6316801313FF476AFD1
:1080F0007188033106EB810C6345BFF450AF019AE0
:108100004FF48061AAF8041008216CE70B25D4E62F
:108110000221AAF804100121CAF800000291D5E753
:10812000084D01220023227005F11006636055F806
:10813000043B05A803B19847AE42F8D1BCE600BFA6
:10814000D42E0020C42E0020C8910300202F002030
:10815000AC2F0020DEC0ADDEFE011EF1F02E0020AF
:10816000BC2F0020DC2E002014100010342D002025
:10817000C02F0020F82E002093000393134408EB37
:10818000830C002108F823104FF00203ACF80830EC
:10819000CCF804008668013600F5805300F1080130
:1081A00040D0408900F1030E01EB8E0E73452FD3B2
:1081B00002260192E646B1F804C04FF6FF729445DC
:1081C00037D0B1F800C0BCF1000F32D01F4AD1F84F
:1081D00008C01268944505D91C4ABEF80860C2F868
:1081E00000C0488806440336B6B2AEF80860488836
:1081F000033001EB80018B4219D90868013016D099
:10820000488800F1030C01EB8C0C6345D3D2019A32
:108210000399114408EB81014FF480604FF001068F
:108220000E740881013292B247F00207DCE6019A2F
:10823000F8E74FF001028EF810204888BEF8086079
:10824000D0E7082539E60821CDE600BFF02E002052
:1082500008B301B370B582B00C460DF106010546B6
:10826000FFF7E0F8A0B1BDF806000C4B6E6800EB1C
:10827000800003EB800001210C30FFF7AFF826608F
:108280006B6801220C3300206360AA7202B070BDDB
:108290000A2002B070BD0520704700BFF82E0020F4
:1082A000E8B110B582B00DF106010446FFF7BAF847
:1082B00090B1BDF806300C4A03EB830302EB830355
:1082C000DA6872B1A27A62B1DA680021013A08462E
:1082D000DA60A17202B010BD0A2002B010BD052004
:1082E0007047062002B010BDF82E0020484B1B78C6
:1082F000002B32D0002934D00A884FF6FF739A42FF
:1083000029D04B883BB34B689B072CD12DE9F04318
:10831000B1F8088008F103039BB240F2FD329342AA
:1083200083B01CD83B4A17783FB956891489344426
:108330001C44A4B2B4F5806F17D3147D3CB9D68B1E
:10834000948B34441C44A4B2B4F5806F5DD30720F1
:1083500003B0BDE8F0830420704702207047092075
:10836000F6E70520704703207047BC464FEA8C09AA
:10837000E14402EB890933440C46054601A926482D
:10838000A9F80A30FEF704FF1C22064600210EF071
:108390001CFD5EB302234FF00009B782337086F8EC
:1083A00016906368336101211C48FFF717F8F060ED
:1083B000238833816388B38001A9A6F80A90A6F8C0
:1083C00006801548FEF710FF45B1C5F80490F26825
:1083D000134B2A601B8985F80A902B8101211148D3
:1083E000FEF7F0FF044660B10020B1E7B9F80A30AB
:1083F000C8F57F4808F1FD089844A9F80A800820CC
:10840000A6E7FFF7F9F82046A2E70127BC46ADE74B
:10841000D42E0020F82E0020AC2F0020F02E0020BB
:10842000DC2E0020BC2F0020002836D0484B1B78C3
:10843000002B30D0002930D00A884FF6FF739A42C3
:108440002FD04B886BB34B689B0728D12DE9F043A5
:10845000B1F8089009F103039BB240F2FD32934258
:1084600083B020D83B4A15783DB9578914893C44DC
:108470001C44A4B2B4F5806F17D3147D3CB9D78BDC
:10848000948B3C441C44A4B2B4F5806F5BD30720AA
:1084900003B0BDE8F0830220704705207047032039
:1084A0007047042070470920F2E7A846AC464FEA1F
:1084B0008C05654402EB85053B4406460C46264880
:1084C0006B8101A9FEF764FE1C22074600210EF015
:1084D0007CFC57B300250323A7F814803B70BD75BF
:1084E00063683B6101211D48FEF778FFF86023882F
:1084F0003B816388BB800423A7F80690BB75336873
:10850000BB6101A97D811448FEF76EFE7560FA68B3
:10851000134B32601B89B572338101211148FEF77C
:1085200051FF044658B12846B2E76B89C9F57F4927
:1085300009F1FD099944A5F80A900820A8E7FFF77A
:108540005BF82046A4E74FF00108C446AFE700BF40
:10855000D42E0020F82E0020AC2F0020F02E00207A
:10856000DC2E0020BC2F0020184B1B7823B34FF6C5
:10857000FF7398421ED070B582B001A9044614481A
:10858000FEF706FE1C22054600210EF01EFCADB1D2
:1085900005230126EC8001A92B702E710C48FEF7F3
:1085A00023FE31460B48FEF70DFF044648B100207C
:1085B00002B070BD0420704702207047082002B04E
:1085C00070BDFFF719F8204602B070BDD42E002010
:1085D000AC2F0020BC2F0020194B1B78EBB110B53D
:1085E00082B001A91748FEF7D3FD1C2204460021E2
:1085F0000EF0EBFB0CB30623237001A91148FEF724
:10860000F3FD114B1A7852B901211048FEF7DAFE3A
:10861000044668B1002002B010BD0220704701225C
:1086200001210A481A73FEF7CDFE04460028F1D155
:10863000FEF7E2FF204602B010BD082002B010BDD8
:10864000D42E0020AC2F0020DC2E0020BC2F0020D8
:108650002DE9F043344C2478002C60D03AB333B386
:108660009F88012F5ED8314C07EB870C013704EB54
:108670008C0CBFB24FF6FF7E4FF000089CF8004014
:1086800074B91C68DCF8045005F58056002C43D002
:108690006588033504EB8504B4420BD3C3F800802E
:1086A000022F9F800CF1140C3CD00227E6E7052036
:1086B000BDE8F08325680135F0D06588033504EB0B
:1086C0008505AE42EAD3B4F80490F14515D0B4F86C
:1086D0000090B9F1000F10D01C60A5888542D1D15F
:1086E00025888D42CED1A16811601968104B516068
:1086F0001B8913810020BDE8F083AE42CED92C68DF
:1087000001342C46CAD0B5F8029009F1030905EBF3
:108710008905AE42D7D2C1E705F10804BCE70220C3
:10872000BDE8F0830A20C3E7D42E0020F82E0020F5
:10873000DC2E0020334B1B78002B5CD051B34AB3A6
:108740002DE9F0419588012D5AD82F4F05EB85036F
:1087500007EB830701353B78ADB24FF6FF7C4FF056
:10876000000E43B1022D958007F1140748D03B78E5
:108770000225002BF6D113687C6804F58056002B87
:108780003BD05C88033403EB8403B34204D3C2F8C8
:1087900000E0E7E7052070471C680134F7D05C88EB
:1087A000033403EB8404A642F1D3B3F80480E0451C
:1087B00012D0B3F80080B8F1000F0DD013601C8800
:1087C0008442D9D19B680B601268104B4A601B89A8
:1087D0000B810020BDE8F081A642D8D9236801337F
:1087E0002346D4D0B4F8028008F1030804EB8804CF
:1087F000A642DAD2CBE70220704704F10803C4E7AF
:108800000A20E7E7D42E0020F82E0020DC2E0020DE
:10881000334B1B78002B5CD051B34AB32DE9F041A8
:108820009588012D5AD82F4F05EB850307EB830759
:1088300001353B78ADB24FF6FF7C4FF0000E43B1EF
:10884000022D958007F1140748D03B780225002BB4
:10885000F6D113687C6804F58056002B3BD05C8809
:10886000033403EB8403B34204D3C2F800E0E7E728
:10887000052070471C680134F7D05C88033403EB93
:108880008404A642F1D3B3F80480E04512D0B3F8D3
:108890000080B8F1000F0DD013609C888442D9D1BC
:1088A0009B680B601268104B4A601B890B8100208B
:1088B000BDE8F081A642D8D9236801332346D4D03D
:1088C000B4F8028008F1030804EB8804A642DAD267
:1088D000CBE70220704704F10803C4E70A20E7E76A
:1088E000D42E0020F82E0020DC2E002020B119B15B
:1088F00003680B60002070470520704720B119B154
:1089000001600B68114618470E20704750B32DE9DF
:10891000F0414AB3D0F800E0BEF1000F27D01D4669
:1089200073B14768D7F80480B3FBF8F708FB173733
:1089300037B942EA0104A40705D01020BDE8F08150
:108940000920BDE8F081C468A142F6D301F1FF3CE3
:1089500004696544A542F0D8DEF80C40A446BDE8A1
:10896000F04160470E2070470E20BDE8F0810820DE
:10897000BDE8F08100B3F0B5D0F800C0BCF1000F45
:108980001CD0AAB14768D7F800E00EF1FF370F42BC
:1089900010D1C768B9420DD34D1E04690EFB0255B4
:1089A000A54207D8DCF81040A446BDE8F040604777
:1089B0000920F0BD1020F0BD0E2070470820F0BD4A
:1089C00029DF704728DF704708467047002070474E
:1089D000024B187A003018BF012070477430002015
:1089E000034B187A0122B0FA80F05A74400970479C
:1089F0007430002008B510461A460EF0C2F9002067
:108A000008BD00BF08B51422002104480EF0DDF9AE
:108A10000348FEF79BFB002008BD00BF7430002018
:108A20006430002010B5094C094B43602046FEF726
:108A3000EDFC40B903F07CFB1C2320748C2205491B
:108A40000548FEF76BFB002010BD00BF743000200E
:108A5000BC910300D82F00206430002030B55E4C5C
:108A6000237A87B0002B3AD05C4B1B68022222721B
:108A70001A79002A3ED0012A0CD1D3E9030210440E
:108A8000FFF7A0FF002849D0112803D1012323724A
:108A900007B030BD19688A68C2B1002268460092EA
:108AA000C0E902220325026101959A6805921A79AC
:108AB000002A4BD0012A07D102228DF80020DA6863
:108AC000120302925B6904938B6898470023444920
:108AD000444823726360FEF7C5FB07B030BD4049D0
:108AE0004048FEF791FB3D4A034610600028BDD187
:108AF0006060F2E7D3E90525521BB2F5805F28BF1D
:108B00004FF48052D3E903109208012A38BF0122A2
:108B100029442844FFF754FF0028B5D1227C002ABD
:108B2000DBD1227A002AD8D0022A0AD1E0601A7951
:108B3000DAB1012A05D1D3E9042101328A421A614E
:108B40001FD0637C73B103F0E3FAC6E701228DF80E
:108B500000201A690292DA6803925B6904938B68B9
:108B60009847B3E7FFF77AFFB7E7D3E90512881A0A
:108B7000B0F5805F94BF121802F5805291429A615D
:108B8000DFD10022227219688868A8B16846009275
:108B9000C0E90122C0E903229A6805921A7982B1DC
:108BA000012A07D102228DF80020DA68120302920E
:108BB0005B6904938B68984709490A48FEF752FBA2
:108BC000BFE701228DF800201A690292DA68039249
:108BD0005B690493EEE700BF743000208C30002006
:108BE00088300020643000202DE9F04782B08246B2
:108BF0008946174801A990461F46FEF7C9FA10B3E7
:108C0000044600211C220D46124E0EF0DEF80A9B8F
:108C1000C4F800A0A360C4E90389676101A92571B4
:108C20000B48FEF7E1FA301DFEF7F0FB38B9747C13
:108C300034B9FFF713FF204602B0BDE8F08728469D
:108C400002B0BDE8F087042002B0BDE8F08700BFA5
:108C500064300020743000202DE9F04383B0814659
:108C60000D46164801A917469846FEF791FA08B333
:108C700004461C2200210EF0A8F8114EC4F8009002
:108C800001232D0BC4E90285676101A923710B48FB
:108C9000FEF7AAFA301DFEF7B9FB38B9747C34B977
:108CA000FFF7DCFE204603B0BDE8F083002003B0F0
:108CB000BDE8F083042003B0BDE8F08364300020F9
:108CC0007430002000F0FD03012B00D0704730B558
:108CD000604CA0F10100B0FA80F0237A4009002234
:108CE00087B020746274002B3AD05B4B1B68022261
:108CF00022721A79002A3ED0012A0CD1D3E903024C
:108D00001044FFF75FFE002849D0112803D101234A
:108D1000237207B030BD19688A68C2B10022684664
:108D20000092C0E902220325026101959A6805922A
:108D30001A79002A4BD0012A07D102228DF800208F
:108D4000DA68120302925B6904938B6898470023E8
:108D50004249434823726360FEF784FA07B030BD8E
:108D60003E493F48FEF750FA3B4A03461060002850
:108D7000BDD16060F2E7D3E90525521BB2F5805FF3
:108D800028BF4FF48052D3E903109208012A38BF5C
:108D9000012229442844FFF713FE0028B5D1227C84
:108DA000002ADBD1227A002AD8D0022A0AD1E06038
:108DB0001A79CAB1012A05D1D3E9042101328A42C4
:108DC0001A611DD0637C63B103F0A2F9C6E70122EA
:108DD0008DF800201A690292DA6803925B690493A5
:108DE000B3E7FFF73BFEB9E7D3E90512881AB0F500
:108DF000805F94BF121802F5805291429A61E1D1CE
:108E00000022227219688868A8B168460092C0E9F9
:108E10000122C0E903229A6805921A7982B1012AD7
:108E200007D102228DF80020DA68120302925B69F2
:108E300004938B68984709490948FEF713FAC1E77C
:108E400001228DF800201A690292DA6803925B69A8
:108E50000493EEE7743000208C300020883000202E
:108E600064300020831E012B00D9704730B58E4C32
:108E7000237A87B0002B31D0022B2BD103286BD162
:108E8000E3680133082B79D9884B00221B68E26024
:108E900022720D2519688A68C2B1002268460092C4
:108EA000C0E90222026101959A6805921A79002AA6
:108EB00000F0B980012A07D102228DF80020DA687B
:108EC000120302925B6904938B689847784979484A
:108ED000FEF7C8F9637C1BB103F01AF907B030BD87
:108EE000237A002B5BD0714B1B68022222721A7905
:108EF000002A5FD0012A0BD1D3E903021044FFF707
:108F000061FD002869D0112802D101232372E5E711
:108F100019688A68C2B1002268460092C0E902223C
:108F20000325026101959A6805921A79002A70D08A
:108F3000012A07D102228DF80020DA68120302927A
:108F40005B6904938B6898470023594959482372F9
:108F50006360FEF787F9C1E7544B00221B68E260AB
:108F60001A796AB1012AB5D1D3E9042101328A42C2
:108F70001A6111D0637C002BAED1B4E7E360F9E74E
:108F8000D3E90512881AB0F5805F94BF121802F574
:108F9000805291429A61EDD1002525727AE74449C9
:108FA0004448FEF731F9414A0346106000289CD13D
:108FB000606093E7D3E90525521BB2F5805FD3E9E2
:108FC000031028BF4FF480529208012A38BF0122B3
:108FD00029442844FFF7F4FC93E7227C002A7FF41D
:108FE0007DAF227A002A3FF479AF022A0AD1E060ED
:108FF0001A7912B3012A05D1D3E9042101328A4238
:109000001A6126D0637C002B7FF466AFFFF726FD44
:1090100064E701228DF800201A690292DA6803924F
:109020005B6904938EE701228DF800201A69029291
:10903000DA6803925B69049346E7D3E90512881A5C
:10904000B0F5805F94BF121802F5805291429A6188
:10905000D8D10022227219688868A8B168460092A7
:10906000C0E90122C0E903229A6805921A7982B107
:10907000012A07D102228DF80020DA681203029239
:109080005B6904938B68984709490A48FEF7EAF838
:10909000B8E701228DF800201A690292DA6803927B
:1090A0005B690493EEE700BF743000208C30002031
:1090B0008830002064300020064A074B10B5002499
:1090C00014701C60BFF35F8F0449054800F00AF874
:1090D000204610BD983000209C300020E89103000D
:1090E0009030002001600B6843604A68934204BFDF
:1090F00000234360704700BF436843B10268916832
:109100000B4443605268934204BF0023436070479E
:1091100010B570B101280BD10D4C2369A0703BB183
:10912000D3E900230120226198472369002BF7D15E
:1091300010BD074CA36801226270002BF8D0D3E960
:1091400000230020A2609847A368002BF7D1EFE727
:10915000A030002070B910B5074CA36801226270DE
:109160003BB1D3E900230020A2609847A368002BFD
:10917000F7D110BD704700BFA030002030B50128E6
:1091800083B01CD015D3032811D100F001F902A837
:1091900000231F4C00F8013DFDF782FFE368013B0F
:1091A000E360E56865B39DF80700FDF79FFF03B036
:1091B00030BD184B0122C3F8802003B030BD02A897
:1091C0000023134C00F8013DFDF76AFF237853B1EB
:1091D000E3689DF8070001330122E360A270FDF708
:1091E00085FF03B030BD0C486360A3602361E3607A
:1091F00000F0C0F802F09CFF30B101232370E7E7D4
:1092000000F0DCF8A570CEE700F0C2F8F5E700BF8B
:10921000A030002000E100E01191020036DF70472D
:10922000012800D0704710B500F0AAFBBDE810403F
:10923000004700BF10B5012882B0044611D00328B2
:109240000DD1114BC021012283F800131A6000F0E8
:1092500097FB20B14FF080430422C3F8042302B0EF
:1092600010BD02A8002300F8013DFDF719FF00F032
:1092700087FB10B12046FFF7D1FF9DF80700FDF7EF
:1092800035FF02B010BD00BF00E100E030B585B091
:10929000047845688DF80040D0E90240064A074B43
:1092A000039053F8213001958DF8084052F82110B1
:1092B0006846984705B030BDB4300020B830002073
:1092C00030B585B0047845688DF80040D0E902409B
:1092D000064A074B039053F8213001958DF808405A
:1092E00052F821106846984705B030BDB4300020D0
:1092F000B8300020F0B51A4B06781A4D0C6991F879
:109300001DE045F826400746174803F806E040F8F8
:1093100026200C4694460FCC89B06D460FC594E8C4
:109320000F0085E80F000496BEF1000F0BD0BCF1D2
:10933000000F0E4A694607F1040008BF002200F042
:1093400051FF09B0F0BDBCF1000F094A694607F1B1
:109350000C0008BF002200F06FFC09B0F0BD00BF98
:10936000F06E0020B4300020B83000208D92020052
:10937000C1920200054A13792BB901211060537183
:109380001846117170478520704700BFBC3000201F
:10939000084B1A68D20704D4C021012283F80013B5
:1093A0001A604FF08041044B02200122C1F81805D9
:1093B0001A70704700E100E0F16E0020044B0122BA
:1093C0001A604FF08042D2F81834DB03FBD47047A8
:1093D0000C00004010B5154B1A6882B07AB100211C
:1093E000134A19601B68507900934FF080410123A4
:1093F000009CC1F8083310B91168537188470D4BB0
:109400001A6882B100221A601B6801934FF08042F3
:109410000221074B0198C2F808131B68012002B013
:10942000BDE81040184702B010BD00BF0001004069
:10943000BC300020040100402DE9F04186B000233B
:10944000A14A01931168012900F054811E469F4BE7
:109450001A68012A00F05E819D4B1A68012A00F00B
:109460006B819C4B1A68012A00F078819A4B1A682C
:10947000012A00F08581994B1A68012A00F0928137
:10948000974B1A68012A00F09F81964B1A68012AAF
:109490000CD0954B1B68012B00F0A48116F0FF0F38
:1094A00015D1002E30DB06B0BDE8F0818F4AD2F82E
:1094B00004231706EDD500221A601A68049260335F
:1094C000049A1B68012B46F0800600F08B81884FC0
:1094D00001250024A30003F18043354203F5C04376
:1094E0004FEA45050BD0D3F8100557F82420D3F8E0
:1094F0001015C0F30420C1F3014102B190470134BB
:10950000082CE7D1002ECEDA00224FF0FF33CDE950
:109510000223774C012602AF94F950305D1C2CD009
:10952000DBB223F0C00006AA4FEAD00C02EB0C0E0F
:1095300003F007021EF80C1C06FA02F211421CD0BE
:109540002518990995F9303054F82330002B00F094
:109550009781032900F097814FEA800C0CF1A04C11
:109560001EF8145CDCF800E71540CEF3014E40F025
:109570005B81BEF1030F00F0DD81002594F95130CD
:10958000581C2DD0DBB223F0C00006AA4FEAD00849
:1095900002EB080E03F007011EF80C2C06FA01FC82
:1095A00012EA0C0F1CD02218990992F9303054F8A5
:1095B0002330002B00F05A81032900F05A818200E9
:1095C00002F1A0421EF8148CD2F800E718EA0C0F42
:1095D000CEF3014E40F03581BEF1030F00F0A581BE
:1095E00094F95230591C2DD0DBB223F0C00006AAEA
:1095F0004FEAD00802EB080E03F007011EF80C2C0E
:1096000006FA01FC12EA0C0F1CD02218990992F9F3
:10961000303054F82330002B00F03B81032900F058
:109620003B81820002F1A0421EF8148CD2F800E7C0
:1096300018EA0C0FCEF3014E40F0E280BEF1030FAA
:1096400000F06D8194F953305A1C2DD0DBB223F019
:10965000C00006AA4FEAD00802EB080E03F007018B
:109660001EF80C2C06FA01FC12EA0C0F1CD0221872
:10967000990992F9303054F82330002B00F0EC8037
:10968000032900F0EC80820002F1A0421EF8148C45
:10969000D2F800E718EA0C0FCEF3014E40F0BB8081
:1096A000BEF1030F00F0FF80002D3FF4FCAE4FF041
:1096B000A043019AD3F8103593423FF4F4AE029AD6
:1096C0000193039228E700BF00610040046100405D
:1096D000086100400C6100401061004014610040CE
:1096E000186100401C6100407C6100400060004047
:1096F000C43000209A49D1F8046316F001063FF403
:10970000A6AE136013680493049B964B1A68012A53
:109710007FF4A2AE924AD2F8042397077FF59CAE5D
:1097200000221A601B680493049B8F4B1A68012A5D
:1097300046F002067FF495AE894AD2F80423550715
:109740007FF58FAE00221A601B680493049B874B41
:109750001A68012A46F004067FF488AE804AD2F8DF
:10976000042314077FF582AE00221A601B6804935D
:10977000049B7F4B1A68012A46F008067FF47BAEF3
:10978000774AD2F80423D0067FF575AE00221A601E
:109790001B680493049B774B1A68012A46F0100655
:1097A0007FF46EAE6E4AD2F8042391067FF568AE60
:1097B00000221A601B680493049B6F4B1A68012AED
:1097C00046F020067FF461AE654AD2F804235206C3
:1097D0007FF55BAE00221A601B680493049B46F081
:1097E000400652E6654B00221A601B6805934FF055
:1097F000A043059AD3F81035019346F000464DE694
:10980000BEF1020F7FF41EAF032963D0002B3FF49B
:1098100019AF984716E7BEF1020F7FF445AF032951
:1098200069D0002B54D13FE7BEF1020F7FF4A5AE03
:10983000032900F091800025002B3FF49FAE98474C
:109840009CE6BEF1020F7FF4CBAE032956D0002B6D
:109850003FF4C6AE9847C3E603297FF425AF17F857
:10986000082042EA0C0207F808200CE703297FF4DD
:10987000B7AE17F8082042EA0C0207F808209EE667
:1098800003297FF47AAE17F80C50154307F80C50F3
:1098900062E603297FF4D6AE17F8082042EA0C02EC
:1098A00007F80820BDE60329BBD14FF4003ED2F8EB
:1098B00000C72CF4403CC2F800C7D2F800C70135FD
:1098C0004CEA0E0CEDB2C2F800C7002B3FF4EFAE2D
:1098D0009847E9E64FF4403ED2F800C72CF4403CEC
:1098E000C2F800C7D2F800C701354CEA0E0CEDB241
:1098F000C2F800C78AE74FF4403ED8E74FF4403E35
:10990000D2F800C72CF4403CC2F800C7D2F800C718
:1099100001354CEA0E0CEDB2C2F800C797E70329F7
:109920007FF474AF4FF4003ED6E703298FD14FF494
:10993000003EE5E703297FF47FAF4FF40035DCF804
:10994000002722F44032CCF80027DCF800272A4315
:10995000CCF8002701256FE74FF44035EFE700BF53
:109960000060004004610040086100400C6100405C
:109970001061004014610040186100407C610040AB
:10998000014B1868704700BF2031002010B54FF020
:10999000804384B0D3F80443610704D5D3F8082189
:1099A00003F5847302BBA20602D5144B1A6892B960
:1099B00063060BD5124B1A6842B100221A60114A95
:1099C0001B68019301201368019A984704B0BDE811
:1099D0001040FFF7FFBC002018600A4A1B68029382
:1099E0001368029A9847E3E700221A60064A1B6848
:1099F00003931368039A9847D5E700BF140100400A
:109A0000180100402431002020310020014B1B6848
:109A1000184700BF28310020104B984201D0002089
:109A2000704730B583B002A8002300F8013D0D4611
:109A3000FDF736FB0A4B1C7934B19DF80700FDF7A2
:109A400055FB112003B030BD01229DF807001D60B9
:109A50001A71FDF74BFB2046F4E700BF00200040E1
:109A600028310020034B984203D1034B00221A6097
:109A70001A717047002000402831002030B56C4A30
:109A8000D2F8043399058BB066D5D2F82431002B77
:109A900062D00023C2F82431D2F8243103934FF46A
:109AA0000171644B0398C2F8081393F8291009B99F
:109AB000012151605E4902228DF81820D1F88024DE
:109AC000C1F880249869D96809920022CDE907106D
:109AD000C3E90622D3E9001406A8A047544AD2F8E5
:109AE0001C31BBB1534B186A5969884269D350483D
:109AF0000022C0F81C21D0F81C010190019849B146
:109B000098688DF8182008915A610790D3E90012DF
:109B100006A89047464AD2F84431DBB10021454BB4
:109B2000C2F84411D2F8440193F82910009000982B
:109B300009B1012111609A6962B10022586AD9689D
:109B40009A610122CDE907108DF8182006A8D3E903
:109B5000001290470BB030BD354AD2F804335B0792
:109B6000BCD5D2F80831002BB8D0324B9969002906
:109B70003CD00021C2F80811D2F8081104910499D0
:109B8000D868596AD2F8182542545A6A996901323C
:109B90005A625A6A8A42A1D1DA691968002A2ED01B
:109BA000D8685D6A1C699A61079000220120DC6018
:109BB000DA615A628DF8180008955B6806A8984724
:109BC0008CE793F8280000F0FF0400288FD1C2F83A
:109BD0001C41D2F81C11029102999C68186A196AFA
:109BE000205C01311962C2F81C0593E7C2F8081124
:109BF000D2F8080105900598D2F81825C9E793F81E
:109C0000292012B90A4A01205060094A4FF4017014
:109C1000C2F80803586ADA68089000240120079205
:109C20008DF818005A689C6106A8904756E700BF57
:109C300000200040303100202DE9F0415E4F0679D0
:109C40002C2505FB067582B095F82A30002B40F0D4
:109C500087800D460446594900689046FFF7DCFEB0
:109C6000002879D12B68591C0CD001224FF0A0415B
:109C700002FA03F3C1F808352B6803F5E0730322F9
:109C800041F823206B685A1C06D003F5E0734FF0AF
:109C9000A042002142F823102368AA69C3F82425B2
:109CA000297D6B7D22680B43C2F86C35D5E9001223
:109CB0002368C3F81425C3F80C152B7D012B53D052
:109CC0002C2303FB06F3FA18C2F804802A69FA5021
:109CD000B8F1000F2DD022682B7F394D0021C2F83A
:109CE0001C11D2F81C2100922268DDF800C0C2F8D5
:109CF0004411D2F84411226801910199C2F8045329
:109D00002168090B4AB25B01002ADBB24EDB02F18B
:109D1000604202F5614282F800332368294D1B0B33
:109D20005AB2520903F01F03012101FA03F345F867
:109D300022302C23246803FB067300220425012112
:109D4000C4F8005583F82A10C3E9062283F82920B5
:109D50005A6102B0BDE8F081112002B0BDE8F08187
:109D6000082002B0BDE8F081AB68591C06D003F5AD
:109D7000E0734FF0A042002142F82310EB685A1C18
:109D80000DD001224FF0A04102FA03F3C1F80835CB
:109D9000EB6803F5E073032241F82320EB682268A7
:109DA000A968C2F80835C2F8101589E7064A01F01B
:109DB0000F010A441376B0E7303100207D9A02008B
:109DC0008000020000E100E0FCEC00E0F8B52F4D5F
:109DD000047902682C2303FB045300215B68C2F85A
:109DE000001583B103682A4AC3F808230368294E83
:109DF0001B0B5AB25209203203F01F03012101FA52
:109E000003F346F8223003684FF0FF32D3F80CC555
:109E1000D3F81475D3F80815D3F81065C3F81425D2
:109E2000C3F80C2503689445C3F80825C3F810252A
:109E300006D00CF5E07C4FF0A043022243F82C2022
:109E40007B1C06D007F5E0774FF0A043022243F8D1
:109E50002720721C06D006F5E0764FF0A0430222C0
:109E600043F826204B1C06D001F5E0714FF0A043CB
:109E7000022243F821200068FFF7F4FD2C2303FBA6
:109E80000454002384F82A306360F8BD3031002088
:109E90008402020000E100E0F0B5314E05792C2388
:109EA00003FB056385B05C69002C53D11C6299608B
:109EB00083F828405A610268C2F81C41D2F81C118C
:109EC000026802910121029F91600268D3F808C0E4
:109ED000C2F81C41D2F81C1101910199D3F820E07D
:109EE000196A5F681CF80EE001311962C2F81CE5BE
:109EF00017B1204605B0F0BD1A6A5C69016894424A
:109F000003D819E093F828203ABBD1F81C21002A85
:109F1000F8D0C1F81C71D1F81C210392039AD3F830
:109F200020E01A6A1CF80EE001321A62C1F81CE542
:109F30001A6AA242E9D30168D1F81C31002BFBD088
:109F40000123CB6000202C2303FB056500236B61FC
:109F500005B0F0BD112005B0F0BD0F20F3E700BF44
:109F6000303100200379044A2C2101FB0323586976
:109F7000003018BF0120704730310020F0B4514D3F
:109F800004792C2303FB045386B05F6827B1036870
:109F90004FF40176C3F808632C2303FB04539E6936
:109FA0006EB1DE690EB3002F00F0848003684FF4B9
:109FB00001721120C3F8042306B0F0BC704793F877
:109FC00029709A61D9605E62DE61002F60D02C2218
:109FD00002FB04520168536853B14FF40173C1F896
:109FE0000433002006B0F0BC70471961DA61EEE777
:109FF000C1F84431D1F844310393039B0368D3F88B
:10A000002461D3F80871D3F8441157B9002936D127
:10A01000002EF4D02C2303FB04540023A36103205F
:10A02000E0E7002EF6D161BB966996B1C3F808113E
:10A03000D3F8081104910499D668516AD3F81835F9
:10A040007354536A916901335362536A9942D5D864
:10A0500008E0C3F80861D3F8081105910599D3F811
:10A060001835536A2C2303FB0454002294F829303A
:10A07000A2610BB30368012110461960B2E7002EFC
:10A08000C8D12C2303FB04540023A3610F20A9E7AC
:10A090000368C3F82471D3F8242103680192019A5C
:10A0A000C3F80871D3F808210368029201220299CB
:10A0B0001A608CE7112095E702680121184651606B
:10A0C00090E700BF30310020F0B5444BD3F8242195
:10A0D00089B0002A52D00021C3F82411D3F82421DA
:10A0E000029202228DF81020029AD3F880043C4A92
:10A0F000C3F880040790D3F83C05D3680690C2E902
:10A10000061105931168536804A89847334BD3F898
:10A110004421BAB10021324AC3F84411D3F8444172
:10A1200090690194019C68B1D3F83C35D0680693DE
:10A130000123C2E9061105908DF8103004A8D2E978
:10A1400000139847254BD3F82021AAB10021C3F86A
:10A150002011D3F82001224A00900098506958B18C
:10A16000D3F84C05936806908DF810105161059353
:10A1700004A8D2E90013984709B0F0BDD3F8101134
:10A180000029C3D0C3F81021D3F81011144803914B
:10A1900003998169D3F83C458C42B7D1C569C7683A
:10A1A000D0E900168DB1D3F800C285612CF02005EE
:10A1B000C261C3F800520369C3600122CDE905748E
:10A1C0008DF8102004A8B047A0E701238561CDE9F0
:10A1D00005748DF8103004A8B04797E700200040C0
:10A1E0005C3100202DE9F0430779674E4FEAC7083C
:10A1F00008EB070306EB830385B093F82030002BB0
:10A2000040F096800D460446604900689146FFF78D
:10A2100003FC002840F088802B68591C0CD00122D8
:10A220004FF0A04102FA03F3C1F808352B6803F59B
:10A23000E073032241F823206B685A1C06D003F513
:10A24000E0734FF0A042002142F823102368AA696E
:10A25000C3F82425297D6A7D23680A43C3F86C2549
:10A26000D5E900312268C2F80C35C2F814152B7DEF
:10A27000012B61D008EB07029200B318C3F80490D9
:10A280002B69B350B9F1000F3DD021682B7F404DB1
:10A290000022C1F81021D1F8101100912168DDF8D9
:10A2A00000C0C1F82021D1F8201101912168DDF80A
:10A2B00004C0C1F82421D1F8241102912168DDF8ED
:10A2C00008C0C1F84421D1F84411226803910399D0
:10A2D000C2F804532168090B4AB25B01002ADBB2C1
:10A2E0004CDB02F1604202F5614282F800332368E0
:10A2F000284D1B0B5AB2520903F01F03012101FA2A
:10A3000003F345F822304744226806EB8706002312
:10A3100001240821C2F8001586F82040C6E906335A
:10A32000736105B0BDE8F083112005B0BDE8F0838E
:10A33000082005B0BDE8F083AB68591C06D003F5D2
:10A34000E0734FF0A042002142F82310EB685A1C42
:10A350000DD001224FF0A04102FA03F3C1F80835F5
:10A36000EB6803F5E073032241F82320EB682268D1
:10A37000A968C2F80835C2F810157BE7064A01F053
:10A380000F010A441376B2E75C310020C9A0020035
:10A390001003020000E100E0FCEC00E0F8B50679F3
:10A3A0002F4C0268F500AB1904EB830300215B68B6
:10A3B000C2F8001583B103682A4AC3F8082303686A
:10A3C000294F1B0B5AB25209203203F01F030121FF
:10A3D00001FA03F347F8223003684FF0FF32D3F855
:10A3E0000CE5D3F814C5D3F80815D3F81075C3F8E5
:10A3F0000C25C3F8142503689645C3F80825C3F84F
:10A40000102506D00EF5E07E4FF0A043022243F85F
:10A410002E20BCF1FF3F06D00CF5E07C4FF0A043AE
:10A42000022243F82C207A1C06D007F5E0774FF083
:10A43000A043022243F827204B1C06D001F5E0710F
:10A440004FF0A043022243F82120354404EB850459
:10A450000068FFF707FB002384F820306360F8BD35
:10A460005C3100201003020000E100E001F06043D5
:10A47000B3F1005F2CD1F0B40579244EEF007C19C4
:10A4800006EB840482B0636923BB6261A160026849
:10A49000C2F82031D2F820C10268CDF804C0DDF83E
:10A4A00004C0C2F85831D2F8582100920268DDF891
:10A4B00000C0D4F814C0C2F84415C2F848C50268F8
:10A4C0000121916062684AB1184602B0F0BC704741
:10A4D00010207047112002B0F0BC7047036800E004
:10A4E0008AB9D3F82011D3F858210029F8D0002ACE
:10A4F00014BF0F2000207B1906EB830300225A6152
:10A5000002B0F0BC70470F20F5E700BF5C310020BF
:10A510000379054A03EBC30302EB83035869003058
:10A5200018BF0120704700BF5C31002001F060437C
:10A53000B3F1005F7ED1F0B40579464CEB005E19B3
:10A5400004EB860682B0766826B107684FF4047C77
:10A55000C7F808C32B4404EB83039D69002D42D147
:10A560009A61DD61D9600368C3F81051D3F81061B6
:10A5700003680196019EC3F84451D3F8445103681F
:10A580000095009DC3F83415C3F8382503680122EF
:10A590001A6005790368EE00721904EB82025268B2
:10A5A0005AB14FF40472C3F80423002002B0F0BC87
:10A5B0007047002942D1002846D1D3F81021D3F8A2
:10A5C0004411D3F82401002AF3D0354400284FF079
:10A5D000000304EB850414BF032018469942A361CD
:10A5E00018BF0F20E2E7DD693DB12EB303684FF4D9
:10A5F0000472C3F804231120D8E71961DA610368F3
:10A60000C3F81051D3F8106103680196019EC3F896
:10A610004451D3F8445103680095009DC3F83415A4
:10A62000C3F838250268D2F8003243F02003C2F89C
:10A630000032AEE7102070471120B7E7354404EB35
:10A6400085040F20A261B1E7354404EB85040320A3
:10A65000A161ABE75C310020032811D8012A0BD09F
:10A66000012919D00ED302290AD10E4B00EB40006C
:10A67000034400205A70704701290AD00022EFE7F6
:10A6800007207047074B00EB4000034400209A70FE
:10A69000704700F10E02D2B200EB400301490020E6
:10A6A000CA5470478031002010B50388102B07D0A2
:10A6B000112B04D1254B18680138186030B110BD3A
:10A6C000224C216881B10131216010BD012202219B
:10A6D000FFF7C2FF38B3072825D01D4B1B68002B9E
:10A6E000EDD0BDE81040184701220846FFF7B4FF3F
:10A6F00038B1072805D0164B1B6803B1984721686D
:10A70000E1E7072202210120FFF7A6FF08B1072891
:10A71000F1D1042202210020FFF79EFF0028EED095
:10A720000728E8D1EBE7072202210120FFF794FF79
:10A7300008B10728D1D1002108460A22FFF78CFF73
:10A740000028BCD00728C8D110BD00BF9031002020
:10A750008C3100206DDF704779DF70477DDF7047F7
:10A7600064DF70472DE9F04F83B004880C9EBDF87C
:10A770003490B6F800A0002C39D098460023174634
:10A780008B4605461C4603E02A880134A24224DD9C
:10A790006A6852F82400019000220DF1030101A81B
:10A7A000FFF7DEFF20BB9DF80320BA42ECD13288D0
:10A7B000B91803B389452BDB42440DF1030101A80D
:10A7C0000123FFF7CDFF98B931889DF803200A4493
:10A7D00032802A880134A242DADC43B13388013B5B
:10A7E000A3EB0A039BB2FF2B12D808F80A30002013
:10A7F00003B0BDE8F08F02310132894592B207DB28
:10A80000328008F802B03288013292B23280D3E747
:10A810000C2003B0BDE8F08F2DE9F0470023178826
:10A82000138090F82D3086B0144605460E46002B56
:10A8300040F0FB80AA78002A40F0FD80EA78A2B1BF
:10A84000D91CB94200F2F3800221F154238801336C
:10A850009BB201212380F15423880B449BB22380B7
:10A86000F25423880B449BB223806A68AAB1D91C96
:10A87000B94200F2DC80022192F90020F1542388D1
:10A8800001339BB20A212380F154238801339BB208
:10A890002380F2542388013323802B89002B40F03E
:10A8A0001B812B8A002B40F02F812B8B002B40F03B
:10A8B00043812B6A002B44D02288911DB94200F2BB
:10A8C000B6801988052940F203816FF4486801EBCE
:10A8D000080080B24FF27D3C604540F2F980588814
:10A8E000052840F2F5806FF4486E86441FFA8EFE0C
:10A8F000E64540F2ED804FF6FF7C614504D06045AF
:10A9000002D0814200F2E4800521B1542288013254
:10A9100092B212212280B1542288013292B2228056
:10A920001988B1543244090A51702288023292B215
:10A9300022805B88B35432441B0A5370238802334D
:10A9400023806B6A002B2FD09988B4F800C0881C34
:10A950000CF102020244BA4269D8FE2867D80331DA
:10A9600006F80C102288013292B2FF212280B154E5
:10A970002288013292B222801988B1543244090AE5
:10A9800051702088023080B220809A8862B1996824
:10A990000393002900F09C8030440CF0F2F9039BF3
:10A9A0009A8823881344238095F82C30002B40F09C
:10A9B0008A80287800283BD02B88012B00F08880E3
:10A9C000228802F1020CBC4531D8012804D16B78F1
:10A9D000023313449F422AD3BB1E9B1A06A99BB283
:10A9E00021F8083D06EB0C00FFF7B8FE00BB297804
:10A9F000BDF81020022900F0048168789042C0F070
:10AA0000FB809342C0F0F8800921FE2A0FD82388EA
:10AA1000501CF054238801339BB22380F1542388C7
:10AA200001331A442280002002E0082F23D80C2092
:10AA300006B0BDE8F0870433BB42F8D804A8FFF79E
:10AA40008BFE0028F4D12388BDF810200321F15497
:10AA5000238801339BB219212380F15423880133C9
:10AA60009BB2F1182380F254120A4A7023880233F1
:10AA70009BB22380E2E604A8FFF76CFE0028D7D142
:10AA800013880822CA54238801339BB21B222380D7
:10AA9000CA542088013080B22080062208440DF17B
:10AAA00011010CF06EF923889DF8102006339BB23B
:10AAB00012F0FE0218BF01222380F25423880133D2
:10AAC0009BB22380B6E6D5F82880B8F1000F4CD1B0
:10AAD000072006B0BDE8F08705F108080222CDE99D
:10AAE0000047404611463346FFF73CFE00289FD101
:10AAF000CDE900474046334610220621FFF732FEDB
:10AB000000283FF4CEAE93E705F11008CDE90047E9
:10AB10004046334602220321FFF724FE002887D156
:10AB2000CDE900474046334610220721FFF71AFEC1
:10AB300000283FF4BAAE7BE705F11808CDE90047DD
:10AB40004046334602221421FFF70CFE00287FF412
:10AB50006FAFCDE900474046334610221521FFF77D
:10AB600001FE00283FF4A5AE62E7B8F804200232E7
:10AB7000FE2A3FF65CAF23884FF000094FF0160A1B
:10AB80000132F254238801339BB2238006F803A0DC
:10AB9000238801339BB22380B8F80020F254334459
:10ABA000120A5A70238802339BB22380B8F804102B
:10ABB000F0180A4661B1D8F808301946002B87D042
:10ABC0000CF0DFF8B8F80420238813449BB22380EC
:10ABD00009F1010995F82C205FFA89F94A4509EB3A
:10ABE00049087FF6E6AEAA6A02EB8808B8F80420A6
:10ABF0000232FE2AC4D91AE7012906D01A460821D2
:10AC000003E79342BFF400AFF8E78342F6D302466E
:10AC10000821FAE6F8B130B4437893421CD0B9B1B8
:10AC20000024234601E0994212D9045D01342344F3
:10AC30009BB2C5181C466D789542F4D1994207D94C
:10AC4000025D0233012A9BB202D0184430BC704727
:10AC5000002030BC7047704700242346EEE700BF59
:10AC600072DF704773DF704770B5044600F24A2602
:10AC700081700D463046072200210CF0A6F8E388CB
:10AC800013B1A378012B6AD0E379002B64D194F837
:10AC90004B32002B74D194F84C32002B70D194F8C5
:10ACA0004D32002B6CD194F84E32002B68D194F8C1
:10ACB0004F32002B64D194F850321A1C18BF012275
:10ACC0006B1E032B00F23681DFE803F002530A0DFE
:10ACD000A379002B4DD094F82430002B49D12AB908
:10ACE000237A002B64D1657A002D4DD1A570002305
:10ACF00084F8533204F13C051822002128460CF058
:10AD000064F8E26A0123511E994284F83C3012D95A
:10AD100094F8242084F8513092B184F85230A3780A
:10AD2000002284F85020042B00F2F380DFE803F0C7
:10AD300067426BAA7B0094F8243084F851200BBB47
:10AD4000A378002284F85020042B00F2E280DFE890
:10AD500003F05631D1C5CB00A378022B97D1636B9A
:10AD6000002B00F0E480012284F85122082098474B
:10AD70008DE7E379002BB3D0002AB1D00225B5E7E7
:10AD800001229DE7A36AC8E70422636BA270002B2F
:10AD9000ADD06279002AAAD094F85222002AA6D116
:10ADA000012184F8542284F8531207209847A1E720
:10ADB0000322EAE70023012002218022266484F88E
:10ADC0003100C4F84432636484F83C10A4F848208D
:10ADD00000212A4604F15400FFF742FF00B170BD84
:10ADE00094F8301094F85400FFF73CFF0028F6D197
:10ADF000636B13B194F831009847002070BD0023B5
:10AE000084F83130F4E7022384F831300723D4E9A1
:10AE1000032184F83C3000232664A4F84810C4F8C9
:10AE200044326264D4E7D4E9072162640622A4F8BC
:10AE3000481084F83C206279002A60D094F85222AD
:10AE4000002A5CD194F85422002A58D0022384F8B6
:10AE500050300122B4F83812D4F83402FFF7DAFE89
:10AE600008B10423037004F50D7631462A4604F137
:10AE70005400FFF7F5FE002854D10622A37884F889
:10AE8000312041E0D4E9052162640622A4F848108B
:10AE900084F83C206279002A3ED094F85222DABB32
:10AEA00094F85422C2B3022384F850300122B4F83B
:10AEB0003812D4F83402FFF7ADFE08B10423037052
:10AEC00004F50D7631462A4604F15400FFF7C8FE1A
:10AED00040BB0522A37884F8312015E0D4E905129F
:10AEE0006164A4F84820D5E7D4E907126164A4F8A6
:10AEF0004820A0E7022384F83130032387E70422A7
:10AF000084F8312004F50D76C4F84462002B3FF438
:10AF10006FAFD4F844125CE7032284F8312004F5C3
:10AF20000D76F1E7A378002B3FF462AFF1E784F8E8
:10AF30005132ACE60025D9E680F83010704700BFEA
:10AF400000297AD0002878D0F8B591F87A301BB172
:10AF500091F89830002B6ED1D1F8A030042B6AD034
:10AF6000D1F89C30042B66D04FF0000C80F802C062
:10AF700001F1780604460F460FCE251D0FC50FCEF2
:10AF80000FC596E8070085E8070084F830C0D7F8B9
:10AF9000A4306363D7F8A830A3634FF6FF7504F5B8
:10AFA0000D73C4F844326146A4F84852072204F2F3
:10AFB0004A200BF00AFF23780BB984F8545094F818
:10AFC0002430002B14BFEE231F2304F15501A4F8F5
:10AFD0003832C4F8341204F50E723846FFF71CFC00
:10AFE00040BB94F82430002B14BFEE231F2304F23F
:10AFF000431107F13C00A4F84032C4F83C1204F5B8
:10B000001072FFF709FCA8B9D4E9052501232064D3
:10B0100084F850000146626484F8513084F83C3072
:10B02000A4F8485004F13C0204F15400FFF718FE64
:10B0300000B92370F8BD0720F8BD0E20704700BF8F
:10B04000F8B50678002E7BD0044600F24A27A1709E
:10B050000D463846072200210BF0B7FEE38803BBFC
:10B06000E37913B1A378022B1ED094F84B3283B945
:10B0700094F84C326BB994F84D3253B994F84E327F
:10B080003BB994F84F3223B994F85062003618BF98
:10B0900001266B1E032B00F23481DFE803F00F164C
:10B0A0001B1EA378012BDBD1636B002B00F02681E4
:10B0B000012284F8512208209847D6E7A37923B1CA
:10B0C00094F82430002B00F00781E37913B1002EAF
:10B0D00040F00081237A002B48D1657A95BBA5709A
:10B0E000002384F8533204F13C051822002128463D
:10B0F0000BF06BFEE26A0123511E994284F83C304A
:10B100005FD994F8242084F851306AB184F8523021
:10B11000A378002284F85020042B00F29C80DFE802
:10B1200003F0273158C56800A378002284F8502026
:10B13000042B00F29080DFE803F01B25C291C700CA
:10B140000820F8BD0422636BA270002BC8D062797E
:10B15000002AC5D094F85222002AC1D1012184F8D6
:10B16000542284F8531207209847BCE70322EAE7E9
:10B17000002384F83130636B13B194F831009847A1
:10B180000020F8BD0023012002218022276484F8DA
:10B190003100C4F84432636484F83C10A4F84820B9
:10B1A00000212A4604F15400FFF75AFD0028C8D1B7
:10B1B00094F8301094F85400FFF754FD0028DAD0CA
:10B1C000F8BD94F8243084F85120002BACD0A36A49
:10B1D0009CE7022384F831300723D4E9032184F863
:10B1E0003C3000232764A4F84810C4F84432626459
:10B1F000D6E7D4E9072162640622A4F8481084F84F
:10B200003C206279002A71D094F85222002A6DD134
:10B2100094F85422002A69D0022384F85030012285
:10B22000B4F83812D4F83402FFF7F4FC08B1042360
:10B23000037004F50D7631462A4604F15400FFF7F9
:10B240000FFD002858D10622A37884F83120C4F8D5
:10B250004462002B8FD0D4F84412A2E7D4E905123F
:10B260006164A4F848206279D2B394F85222BABB40
:10B2700094F85422A2B3022384F850300122B4F887
:10B280003812D4F83402FFF7C5FC08B10423037068
:10B2900004F50D7631462A4604F15400FFF7E0FC30
:10B2A00050BB0522A37884F83120D0E7D4E90521EA
:10B2B00062640622A4F8481084F83C20D3E70223F5
:10B2C00084F83130032388E7D4E907126164A4F8D5
:10B2D000482096E7022502E7002E3FF4FBAEFEE68B
:10B2E000032284F8312004F50D76B0E7042284F8B7
:10B2F000312004F50D76AAE7A378AAE784F8513245
:10B30000B3E60025EBE600BF10B50388112B0C4611
:10B310000BD0262B1DD0102B00D010BDC37B012BD2
:10B32000FBD18388A1F8483210BD002381F8523246
:10B330008288B1F848329A42EFD10B79002BECD1D8
:10B340000B78EBB90820A36B002BE6D0BDE81040CA
:10B350001847037A013B012BDFD80B78002BF1D083
:10B360008A780B4B0132A3FB02139B0803EB830388
:10B37000D31AD9B22046FFF777FC0028E3D110BDDD
:10B3800001212046FFF770FC0028DCD110BD00BF72
:10B39000CDCCCCCC704700BF75DF704776DF7047EF
:10B3A0007ADF70477BDF704730B51D4B1A8884B257
:10B3B000A24283B001D003B030BD1A4D187A297B68
:10B3C00088420FD32A7C00211972E2B96B69002BE5
:10B3D000F1D00022ADF806408DF8042001A898476E
:10B3E00003B030BD104603F10A01FFF7D5FF28B1C5
:10B3F0001128E0D0AB69002BF1D1DCE71A7A0132D9
:10B400001A7203B030BD3B212046FFF7C7FF30F072
:10B410000803DBD0AB69002BD8D09847D6E700BF34
:10B42000B031002094310020F0B50288112A83B099
:10B43000034649D036D9122A08D0502A04D16C4D7F
:10B44000C188EA89914251D003B0F0BD694C82882D
:10B4500021889142F8D1E1896589B1F5FA7F24BF4D
:10B460006FF4F9700E18588938BF002685424FD8FE
:10B47000A58985424CD39B89B34249D301F2F3118C
:10B48000994245D35A4B5B694FF480712181002B5F
:10B49000DAD00121ADF806208DF8041001A89847F4
:10B4A00003B0F0BD102ACFD1C27B012ACCD1514CC0
:10B4B00021884FF6FF7291423CD04D4B9B69002B87
:10B4C000C2D004209847BFE74A4C828823889A421A
:10B4D000BAD16068FBF72AFC18B1454B9B6903B1F0
:10B4E00098474FF6FF73238003B0F0BD028A022A0B
:10B4F000AAD1404C86882788B742A5D1123000F0E7
:10B5000069FA002856D16068FBF710FC70B99BE718
:10B51000374D267A6068D5E90131002E08BF1946FB
:10B5200000236372FBF7ACFB00288DD0AB69002BC6
:10B53000B5D189E7304D8288228003CDC4F80E1042
:10B54000E689C4F80A00B6F5FA7F28BF6FF4F975EA
:10B550004FF00001588AB4F80AC0217228BF71194F
:10B56000234D8445EF8919D8B4F80CC0844515D310
:10B570009B8A8B4212D306F2F3169E420ED3012110
:10B580006172002F7FF460AF6B69002B3FF45CAFFA
:10B590008DF80410ADF8062001A880E7002363723F
:10B5A000002F7FF451AF60686968FBF769FB0028E2
:10B5B000BCD149E7637A63B9D5E90131267A60687D
:10B5C0003A46002E08BF1946FBF75AFB0028ADD1BA
:10B5D0003AE76B6900222272002B3FF435AF01225B
:10B5E000ADF806608DF8042001A898472CE700BF4D
:10B5F00094310020B0310020C431002000282FD029
:10B60000F8B5054606460FCD164F3C460FC4844696
:10B6100095E80700144B3B6084E80700BCF1000F7D
:10B6200018D06046FFF7BCFE98B9326810685168C0
:10B6300003C30E4B0E490F4A18464FF6FF7440F8ED
:10B64000041F1C800021FBF709FB002814BF032006
:10B650000020F8BD1846FFF7A5FE0028E9D0F8BD88
:10B660000E20704794310020C4310020B0310020FA
:10B67000CC310020A9B302002DE9F0470388B0F8CF
:10B680000490112B98B059D01A2B804647D0102B1C
:10B6900002D018B0BDE8F087394A936818A8DB4398
:10B6A00040F8603D5168FBF781FE009B0193019BD0
:10B6B00063B300273C46214601A8FBF707FE28B1EB
:10B6C00018AB03EB4703013723F8284C0134142C43
:10B6D000F1D10D970DAE0FCE02AC0FC40FCE0FC43B
:10B6E00096E8070084E8070087B10DF10A0A254EA5
:10B6F0000AEB47073AF8025F234C204629460434F8
:10B70000FBF7DAFDA642F8D1BA45F3D1B9F1130F30
:10B710001BD90420FAF7CCFF18B0BDE8F087047AF3
:10B720001A482409012C494620D9FBF7ABFD022C0D
:10B73000494617481ED0FBF7A5FDAAE7494615481C
:10B74000FBF7BAFD18B0BDE8F08749461148FBF792
:10B7500099FD49460C48FBF795FD98F80F30012BF1
:10B7600097D049460C48FBF78DFD92E7FBF7A4FD07
:10B7700007484946FBF7A0FD18B0BDE8F08700BFB9
:10B78000EC31002064320020F0310020FC31002038
:10B7900000320020F4310020F8310020132801D9B4
:10B7A0000020704701460148FBF790BDF0310020B2
:10B7B000132801D90020704710B5014604460748F8
:10B7C000FBF784FD08B9002010BD21460448FBF7B3
:10B7D0007DFD002814BF0220012010BDF0310020A3
:10B7E000F8310020132801D90020704710B5014618
:10B7F00004460748FBF76AFD08B9002010BD214642
:10B800000448FBF763FD002814BF0220012010BD8F
:10B81000F0310020F4310020132801D900207047B6
:10B8200010B5014604460648FBF750FD08B9002054
:10B8300010BD21460348BDE81040FBF747BD00BFDF
:10B84000F0310020FC310020132801D9002070477E
:10B8500010B5014604460648FBF738FD08B900203C
:10B8600010BD21460348BDE81040FBF72FBD00BFC7
:10B87000F03100200032002013280AD810B501460C
:10B8800004460548FBF722FD08B1204610BD1420F0
:10B8900010BD1420704700BFF031002008B51821FA
:10B8A0000248FBF71DFDC0B208BD00BFEC3100200F
:10B8B00070B50C4C054620460E46FBF707FD08B157
:10B8C000132D01D9002070BD2946201DFBF7FEFC79
:10B8D0000028F7D0B01D04EB80002946BDE8704079
:10B8E000FBF7F4BCEC310020F8B50F4C05462046C0
:10B8F00017460E46FBF7EAFC08B1132D00D9F8BD38
:10B900002946201DFBF7E2FC0028F8D0B01D04EB0F
:10B91000800029461FB9BDE8F840FBF7CDBCBDE863
:10B92000F840FBF7AFBC00BFEC310020F0B5144C81
:10B93000054683B00F46204629461646FBF7C6FC4F
:10B9400018B90025284603B0F0BD043504EB850482
:10B95000A3680193002FF4D0019B002BF1D00025A8
:10B960002C46214601A8FBF7B1FC314610B1A0B22C
:10B97000B84701350134142CF3D1284603B0F0BD8B
:10B98000EC310020EAB100231360D0B10368C3B1E9
:10B9900070B5C38813F0030511D104460846164656
:10B9A000FFF76AFFC0B214280FD0237983420AD967
:10B9B000E388226800FB03233360284670BD07201C
:10B9C00070BD0E207047042070BD052070BD00BF03
:10B9D000AADF7047007800F001007047F0B58B785F
:10B9E00091B0002B0C460988ADF80C1008BF01235C
:10B9F000054616466846032200218DF80E300BF0EE
:10BA0000E4F9637C0022013B8DF80020042B09D867
:10BA1000DFE813F00500D300D700DB00CF001123CF
:10BA20008DF80030A37C0022013B8DF80120042B0F
:10BA300009D8DFE813F00500D200D600BA00CE0026
:10BA400011238DF801309DF80230E77B227D207CA8
:10BA5000217B67F3C303002A60F3041314BF02229F
:10BA6000012261F3000362F3420309A81C220021B2
:10BA70008DF802300BF0A9F9637B13F0300F73D10E
:10BA8000627BA37B8DF824200021142204A88DF86A
:10BA900025300BF09AF9A368A288CDF814D003A939
:10BAA0000491ADF81C201BB1E2880893ADF8182072
:10BAB000A369002B36D001AF0322002138460BF0DA
:10BAC00084F9A2691388ADF82C305388ADF82E3074
:10BAD00051680D97137B0A91013B00218DF80410EA
